{
  "contractName": "MemeMarketplace",
  "abi": [
    {
      "inputs": [],
      "stateMutability": "nonpayable",
      "type": "constructor"
    },
    {
      "anonymous": false,
      "inputs": [
        {
          "indexed": true,
          "internalType": "uint256",
          "name": "itemId",
          "type": "uint256"
        },
        {
          "indexed": true,
          "internalType": "address",
          "name": "nftContract",
          "type": "address"
        },
        {
          "indexed": true,
          "internalType": "uint256",
          "name": "tokenId",
          "type": "uint256"
        },
        {
          "indexed": false,
          "internalType": "address",
          "name": "seller",
          "type": "address"
        },
        {
          "indexed": false,
          "internalType": "address",
          "name": "owner",
          "type": "address"
        },
        {
          "indexed": false,
          "internalType": "address",
          "name": "minter",
          "type": "address"
        },
        {
          "indexed": false,
          "internalType": "uint256",
          "name": "price",
          "type": "uint256"
        },
        {
          "indexed": false,
          "internalType": "bool",
          "name": "sold",
          "type": "bool"
        },
        {
          "indexed": false,
          "internalType": "bool",
          "name": "isExist",
          "type": "bool"
        }
      ],
      "name": "MarketTokenMinted",
      "type": "event"
    },
    {
      "anonymous": false,
      "inputs": [
        {
          "indexed": true,
          "internalType": "uint256",
          "name": "itemId",
          "type": "uint256"
        },
        {
          "indexed": false,
          "internalType": "uint256",
          "name": "likes",
          "type": "uint256"
        },
        {
          "indexed": false,
          "internalType": "uint256",
          "name": "dislikes",
          "type": "uint256"
        }
      ],
      "name": "TokenSocialEvent",
      "type": "event"
    },
    {
      "inputs": [],
      "name": "getListingPrice",
      "outputs": [
        {
          "internalType": "uint256",
          "name": "",
          "type": "uint256"
        }
      ],
      "stateMutability": "view",
      "type": "function"
    },
    {
      "inputs": [],
      "name": "getTotalSoldCount",
      "outputs": [
        {
          "internalType": "uint256",
          "name": "",
          "type": "uint256"
        }
      ],
      "stateMutability": "view",
      "type": "function"
    },
    {
      "inputs": [],
      "name": "getTotalSold",
      "outputs": [
        {
          "internalType": "uint256",
          "name": "",
          "type": "uint256"
        }
      ],
      "stateMutability": "view",
      "type": "function"
    },
    {
      "inputs": [],
      "name": "getCount",
      "outputs": [
        {
          "internalType": "uint256",
          "name": "",
          "type": "uint256"
        }
      ],
      "stateMutability": "view",
      "type": "function"
    },
    {
      "inputs": [
        {
          "internalType": "address",
          "name": "nftContract",
          "type": "address"
        },
        {
          "internalType": "uint256",
          "name": "tokenId",
          "type": "uint256"
        }
      ],
      "name": "getOwner",
      "outputs": [
        {
          "internalType": "address",
          "name": "",
          "type": "address"
        }
      ],
      "stateMutability": "view",
      "type": "function"
    },
    {
      "inputs": [
        {
          "internalType": "uint256",
          "name": "tokenId",
          "type": "uint256"
        }
      ],
      "name": "getSingleMarketToken",
      "outputs": [
        {
          "components": [
            {
              "internalType": "uint256",
              "name": "itemId",
              "type": "uint256"
            },
            {
              "internalType": "address",
              "name": "nftContract",
              "type": "address"
            },
            {
              "internalType": "uint256",
              "name": "tokenId",
              "type": "uint256"
            },
            {
              "internalType": "address payable",
              "name": "seller",
              "type": "address"
            },
            {
              "internalType": "address payable",
              "name": "owner",
              "type": "address"
            },
            {
              "internalType": "address payable",
              "name": "minter",
              "type": "address"
            },
            {
              "internalType": "uint256",
              "name": "price",
              "type": "uint256"
            },
            {
              "internalType": "bool",
              "name": "sold",
              "type": "bool"
            },
            {
              "internalType": "bool",
              "name": "isExist",
              "type": "bool"
            },
            {
              "internalType": "uint256",
              "name": "timeCreated",
              "type": "uint256"
            },
            {
              "internalType": "uint256",
              "name": "likes",
              "type": "uint256"
            },
            {
              "internalType": "uint256",
              "name": "dislikes",
              "type": "uint256"
            }
          ],
          "internalType": "struct MemeMarketplace.MarketToken",
          "name": "",
          "type": "tuple"
        }
      ],
      "stateMutability": "view",
      "type": "function"
    },
    {
      "inputs": [
        {
          "internalType": "uint256",
          "name": "tokenId",
          "type": "uint256"
        }
      ],
      "name": "isTokenExists",
      "outputs": [
        {
          "internalType": "bool",
          "name": "",
          "type": "bool"
        }
      ],
      "stateMutability": "view",
      "type": "function"
    },
    {
      "inputs": [
        {
          "internalType": "uint256",
          "name": "tokenId",
          "type": "uint256"
        }
      ],
      "name": "getComments",
      "outputs": [
        {
          "components": [
            {
              "internalType": "address",
              "name": "addr",
              "type": "address"
            },
            {
              "internalType": "string",
              "name": "comment",
              "type": "string"
            }
          ],
          "internalType": "struct MemeMarketplace.Comment[]",
          "name": "",
          "type": "tuple[]"
        }
      ],
      "stateMutability": "view",
      "type": "function"
    },
    {
      "inputs": [
        {
          "internalType": "uint256",
          "name": "tokenId",
          "type": "uint256"
        }
      ],
      "name": "getLikeStatus",
      "outputs": [
        {
          "internalType": "uint256",
          "name": "",
          "type": "uint256"
        }
      ],
      "stateMutability": "view",
      "type": "function"
    },
    {
      "inputs": [
        {
          "internalType": "uint256",
          "name": "tokenId",
          "type": "uint256"
        }
      ],
      "name": "likeMeme",
      "outputs": [],
      "stateMutability": "payable",
      "type": "function"
    },
    {
      "inputs": [
        {
          "internalType": "uint256",
          "name": "tokenId",
          "type": "uint256"
        }
      ],
      "name": "dislikeMeme",
      "outputs": [],
      "stateMutability": "payable",
      "type": "function"
    },
    {
      "inputs": [
        {
          "internalType": "uint256",
          "name": "tokenId",
          "type": "uint256"
        },
        {
          "internalType": "string",
          "name": "comment",
          "type": "string"
        }
      ],
      "name": "commentMeme",
      "outputs": [],
      "stateMutability": "payable",
      "type": "function"
    },
    {
      "inputs": [
        {
          "internalType": "address",
          "name": "nftContract",
          "type": "address"
        },
        {
          "internalType": "uint256",
          "name": "tokenId",
          "type": "uint256"
        },
        {
          "internalType": "uint256",
          "name": "price",
          "type": "uint256"
        }
      ],
      "name": "makeMarketItem",
      "outputs": [],
      "stateMutability": "payable",
      "type": "function"
    },
    {
      "inputs": [
        {
          "internalType": "address",
          "name": "nftContract",
          "type": "address"
        },
        {
          "internalType": "uint256",
          "name": "tokenId",
          "type": "uint256"
        }
      ],
      "name": "makeMarketItemNonSale",
      "outputs": [],
      "stateMutability": "payable",
      "type": "function"
    },
    {
      "inputs": [
        {
          "internalType": "address",
          "name": "nftContract",
          "type": "address"
        },
        {
          "internalType": "uint256",
          "name": "tokenId",
          "type": "uint256"
        }
      ],
      "name": "createMarketSale",
      "outputs": [],
      "stateMutability": "payable",
      "type": "function"
    },
    {
      "inputs": [
        {
          "internalType": "address",
          "name": "nftContract",
          "type": "address"
        },
        {
          "internalType": "uint256",
          "name": "tokenId",
          "type": "uint256"
        }
      ],
      "name": "cancelMarketSale",
      "outputs": [],
      "stateMutability": "payable",
      "type": "function"
    },
    {
      "inputs": [],
      "name": "fetchMarketTokens",
      "outputs": [
        {
          "components": [
            {
              "internalType": "uint256",
              "name": "itemId",
              "type": "uint256"
            },
            {
              "internalType": "address",
              "name": "nftContract",
              "type": "address"
            },
            {
              "internalType": "uint256",
              "name": "tokenId",
              "type": "uint256"
            },
            {
              "internalType": "address payable",
              "name": "seller",
              "type": "address"
            },
            {
              "internalType": "address payable",
              "name": "owner",
              "type": "address"
            },
            {
              "internalType": "address payable",
              "name": "minter",
              "type": "address"
            },
            {
              "internalType": "uint256",
              "name": "price",
              "type": "uint256"
            },
            {
              "internalType": "bool",
              "name": "sold",
              "type": "bool"
            },
            {
              "internalType": "bool",
              "name": "isExist",
              "type": "bool"
            },
            {
              "internalType": "uint256",
              "name": "timeCreated",
              "type": "uint256"
            },
            {
              "internalType": "uint256",
              "name": "likes",
              "type": "uint256"
            },
            {
              "internalType": "uint256",
              "name": "dislikes",
              "type": "uint256"
            }
          ],
          "internalType": "struct MemeMarketplace.MarketToken[]",
          "name": "",
          "type": "tuple[]"
        }
      ],
      "stateMutability": "view",
      "type": "function"
    },
    {
      "inputs": [],
      "name": "fetchMyNFTs",
      "outputs": [
        {
          "components": [
            {
              "internalType": "uint256",
              "name": "itemId",
              "type": "uint256"
            },
            {
              "internalType": "address",
              "name": "nftContract",
              "type": "address"
            },
            {
              "internalType": "uint256",
              "name": "tokenId",
              "type": "uint256"
            },
            {
              "internalType": "address payable",
              "name": "seller",
              "type": "address"
            },
            {
              "internalType": "address payable",
              "name": "owner",
              "type": "address"
            },
            {
              "internalType": "address payable",
              "name": "minter",
              "type": "address"
            },
            {
              "internalType": "uint256",
              "name": "price",
              "type": "uint256"
            },
            {
              "internalType": "bool",
              "name": "sold",
              "type": "bool"
            },
            {
              "internalType": "bool",
              "name": "isExist",
              "type": "bool"
            },
            {
              "internalType": "uint256",
              "name": "timeCreated",
              "type": "uint256"
            },
            {
              "internalType": "uint256",
              "name": "likes",
              "type": "uint256"
            },
            {
              "internalType": "uint256",
              "name": "dislikes",
              "type": "uint256"
            }
          ],
          "internalType": "struct MemeMarketplace.MarketToken[]",
          "name": "",
          "type": "tuple[]"
        }
      ],
      "stateMutability": "view",
      "type": "function"
    },
    {
      "inputs": [],
      "name": "fetchItemsCreated",
      "outputs": [
        {
          "components": [
            {
              "internalType": "uint256",
              "name": "itemId",
              "type": "uint256"
            },
            {
              "internalType": "address",
              "name": "nftContract",
              "type": "address"
            },
            {
              "internalType": "uint256",
              "name": "tokenId",
              "type": "uint256"
            },
            {
              "internalType": "address payable",
              "name": "seller",
              "type": "address"
            },
            {
              "internalType": "address payable",
              "name": "owner",
              "type": "address"
            },
            {
              "internalType": "address payable",
              "name": "minter",
              "type": "address"
            },
            {
              "internalType": "uint256",
              "name": "price",
              "type": "uint256"
            },
            {
              "internalType": "bool",
              "name": "sold",
              "type": "bool"
            },
            {
              "internalType": "bool",
              "name": "isExist",
              "type": "bool"
            },
            {
              "internalType": "uint256",
              "name": "timeCreated",
              "type": "uint256"
            },
            {
              "internalType": "uint256",
              "name": "likes",
              "type": "uint256"
            },
            {
              "internalType": "uint256",
              "name": "dislikes",
              "type": "uint256"
            }
          ],
          "internalType": "struct MemeMarketplace.MarketToken[]",
          "name": "",
          "type": "tuple[]"
        }
      ],
      "stateMutability": "view",
      "type": "function"
    },
    {
      "inputs": [],
      "name": "fetchMarketAllTokens",
      "outputs": [
        {
          "components": [
            {
              "internalType": "uint256",
              "name": "itemId",
              "type": "uint256"
            },
            {
              "internalType": "address",
              "name": "nftContract",
              "type": "address"
            },
            {
              "internalType": "uint256",
              "name": "tokenId",
              "type": "uint256"
            },
            {
              "internalType": "address payable",
              "name": "seller",
              "type": "address"
            },
            {
              "internalType": "address payable",
              "name": "owner",
              "type": "address"
            },
            {
              "internalType": "address payable",
              "name": "minter",
              "type": "address"
            },
            {
              "internalType": "uint256",
              "name": "price",
              "type": "uint256"
            },
            {
              "internalType": "bool",
              "name": "sold",
              "type": "bool"
            },
            {
              "internalType": "bool",
              "name": "isExist",
              "type": "bool"
            },
            {
              "internalType": "uint256",
              "name": "timeCreated",
              "type": "uint256"
            },
            {
              "internalType": "uint256",
              "name": "likes",
              "type": "uint256"
            },
            {
              "internalType": "uint256",
              "name": "dislikes",
              "type": "uint256"
            }
          ],
          "internalType": "struct MemeMarketplace.MarketToken[]",
          "name": "",
          "type": "tuple[]"
        }
      ],
      "stateMutability": "view",
      "type": "function"
    }
  ],
  "bytecode": "0x60806040526000600355669fdf42f6e4800060055534801561002057600080fd5b506001600055600480546001600160a01b03191633179055611ed9806100476000396000f3fe60806040526004361061011f5760003560e01c80639c55a70f116100a0578063c23b139e11610064578063c23b139e146102f9578063c69bdf751461030c578063ce69f76714610321578063de4f72a314610334578063f064c32e1461035457600080fd5b80639c55a70f146102925780639d7b8e68146102a5578063a87d942c146102ba578063ae76cd4f146102cf578063ae78cea1146102e457600080fd5b80632f634a90116100e75780632f634a90146101f457806331f2479c1461022c578063634a2bd814610259578063685b3e5c1461026c5780637a060f561461027f57600080fd5b806312e85585146101245780631dd9cf86146101485780631f7017041461015d578063202e3740146101a557806323edf697146101c7575b600080fd5b34801561013057600080fd5b506005545b6040519081526020015b60405180910390f35b61015b610156366004611a78565b610369565b005b34801561016957600080fd5b50610195610178366004611aa4565b600090815260066020526040902060070154610100900460ff1690565b604051901515815260200161013f565b3480156101b157600080fd5b506101ba6104c6565b60405161013f9190611b84565b3480156101d357600080fd5b506101e76101e2366004611aa4565b6106be565b60405161013f9190611bd3565b34801561020057600080fd5b5061021461020f366004611a78565b6107da565b6040516001600160a01b03909116815260200161013f565b34801561023857600080fd5b5061024c610247366004611aa4565b61084f565b60405161013f9190611c8b565b61015b610267366004611aa4565b61090a565b61015b61027a366004611a78565b610a7f565b61015b61028d366004611c9a565b610cc2565b61015b6102a0366004611aa4565b610f4d565b3480156102b157600080fd5b50600354610135565b3480156102c657600080fd5b506101356110a4565b3480156102db57600080fd5b506101356110b4565b3480156102f057600080fd5b506101ba6110bf565b61015b610307366004611a78565b611246565b34801561031857600080fd5b506101ba611418565b61015b61032f366004611ccf565b6115d2565b34801561034057600080fd5b5061013561034f366004611aa4565b6116b1565b34801561036057600080fd5b506101ba61171c565b6002600054036103945760405162461bcd60e51b815260040161038b90611d4b565b60405180910390fd5b600260008181558281526006602052604080822090920154808252919020600301546001600160a01b0316331461040d5760405162461bcd60e51b815260206004820152601b60248201527f596f752063616e6e6f74206d616e6167652074686973204e4654730000000000604482015260640161038b565b6040516323b872dd60e01b8152306004820152336024820152604481018390526001600160a01b038416906323b872dd90606401600060405180830381600087803b15801561045b57600080fd5b505af115801561046f573d6000803e3d6000fd5b5050506000918252506006602081905260408220600481018054336001600160a01b03199182168117909255600383018054909116909117905560078101805460ff19166001908117909155910182905590555050565b606060006104d360015490565b905060008060008367ffffffffffffffff8111156104f3576104f3611d82565b60405190808252806020026020018201604052801561052c57816020015b61051961193e565b8152602001906001900390816105115790505b5090505b838310156106b6573360066000610548856001611dae565b81526020810191909152604001600020600401546001600160a01b0316148061059b5750336006600061057c856001611dae565b81526020810191909152604001600020600301546001600160a01b0316145b156106a45760006105ad836001611dae565b6000818152600660205260409020600781015491925090610100900460ff1615156001036106a15760408051610180810182528254815260018301546001600160a01b039081166020830152600284015492820192909252600383015482166060820152600483015482166080820152600583015490911660a0820152600682015460c0820152600782015460ff808216151560e0840152610100918290041615159082015260088201546101208201526009820154610140820152600a820154610160820152835184908790811061068857610688611dc6565b602090810291909101015261069e600186611dae565b94505b50505b6106af600183611dae565b9150610530565b949350505050565b606060076000838152602001908152602001600020600301805480602002602001604051908101604052809291908181526020016000905b828210156107cf576000848152602090819020604080518082019091526002850290910180546001600160a01b03168252600181018054929391929184019161073e90611ddc565b80601f016020809104026020016040519081016040528092919081815260200182805461076a90611ddc565b80156107b75780601f1061078c576101008083540402835291602001916107b7565b820191906000526020600020905b81548152906001019060200180831161079a57829003601f168201915b505050505081525050815260200190600101906106f6565b505050509050919050565b6040516331a9108f60e11b8152600481018290526000906001600160a01b03841690636352211e90602401602060405180830381865afa158015610822573d6000803e3d6000fd5b505050506040513d601f19601f820116820180604052508101906108469190611e16565b90505b92915050565b61085761193e565b506000908152600660208181526040928390208351610180810185528154815260018201546001600160a01b0390811693820193909352600282015494810194909452600381015482166060850152600481015482166080850152600581015490911660a08401529081015460c0830152600781015460ff808216151560e0850152610100918290041615159083015260088101546101208301526009810154610140830152600a015461016082015290565b60026000540361092c5760405162461bcd60e51b815260040161038b90611d4b565b60026000818155828152600660209081526040808320600783528184203385529485019092529091205490919060ff16151560010361099e573360009081526002820160205260408120805460ff19169055600a8301805460019290610993908490611e3a565b90915550610a2a9050565b3360009081526002820160205260408120805460ff19166001908117909155600a84018054919290916109d2908490611dae565b9091555050336000908152600180830160205260409091205460ff1615159003610a2a576001826009016000828254610a0b9190611e3a565b90915550503360009081526001820160205260409020805460ff191690555b827ff49c1ce45188f667b0f55bb9e92eeeb8bc7fcabe5ae102ba9e50d0495192a715836009015484600a0154604051610a6d929190918252602082015260400190565b60405180910390a25050600160005550565b600260005403610aa15760405162461bcd60e51b815260040161038b90611d4b565b600260009081556040516331a9108f60e11b81526004810183905281906001600160a01b03851690636352211e90602401602060405180830381865afa158015610aef573d6000803e3d6000fd5b505050506040513d601f19601f82011682018060405250810190610b139190611e16565b9050336001600160a01b03821614610b6d5760405162461bcd60e51b815260206004820152601b60248201527f596f752063616e6e6f74206d616e6167652074686973204e4654730000000000604482015260640161038b565b600083815260066020526040902060070154610100900460ff1615610bd3576000838152600660205260409020600381018054336001600160a01b031991821681179092556004830180549091169091179055600701805460ff19166001179055610c67565b610be1600180546001019055565b600154600084815260066020819052604082208381556001810180546001600160a01b03199081166001600160a01b038b1617909155600282018890556003820180543390831681179091556004830180548316821790556005830180549092161790559081019190915560078101805461ffff19166101011790554260089091015591505b82846001600160a01b0316837f4eb35c3c60bb4872625f5629b63edf6fc44c316e5c83f472a8c89883bd30cf29336000336000806001604051610caf96959493929190611e51565b60405180910390a4505060016000555050565b600260005403610ce45760405162461bcd60e51b815260040161038b90611d4b565b600260005580610d365760405162461bcd60e51b815260206004820152601e60248201527f5072696365206d757374206265206174206c65617374206f6e65207765690000604482015260640161038b565b600554341015610da15760405162461bcd60e51b815260206004820152603060248201527f7472616e73616374696f6e2076616c7565206d75737420626520657175616c2060448201526f746f206c697374696e6720707269636560801b606482015260840161038b565b6040516323b872dd60e01b8152336004820152306024820152604481018390526000906001600160a01b038516906323b872dd90606401600060405180830381600087803b158015610df257600080fd5b505af1158015610e06573d6000803e3d6000fd5b505050600084815260066020526040902060070154610100900460ff16905015610e735760008381526006602081905260409091206003810180546001600160a01b031990811633179091556004820180549091169055908101839055600701805460ff19169055610f05565b610e81600180546001019055565b60015460008481526006602081905260409091208281556001810180546001600160a01b0389166001600160a01b031991821617909155600282018790556003820180548216339081179091556004830180548316905560058301805490921617905590810184905560078101805461ffff19166101001790554260089091015590505b82846001600160a01b0316827f4eb35c3c60bb4872625f5629b63edf6fc44c316e5c83f472a8c89883bd30cf29336000338860006001604051610caf96959493929190611e51565b600260005403610f6f5760405162461bcd60e51b815260040161038b90611d4b565b600260009081558181526006602090815260408083206007835281842033855260018082019094529190932054909160ff90911615159003610fda57336000908152600180830160205260408220805460ff1916905560098401805491929091610993908490611e3a565b336000908152600182810160205260408220805460ff1916821790556009840180549192909161100b908490611dae565b909155505033600090815260028201602052604090205460ff161515600103610a2a57600182600a0160008282546110439190611e3a565b90915550503360009081526002820160205260409020805460ff19169055827ff49c1ce45188f667b0f55bb9e92eeeb8bc7fcabe5ae102ba9e50d0495192a715836009015484600a0154604051610a6d929190918252602082015260400190565b60006110af60015490565b905090565b60006110af60025490565b606060006110cc60015490565b905060008060008367ffffffffffffffff8111156110ec576110ec611d82565b60405190808252806020026020018201604052801561112557816020015b61111261193e565b81526020019060019003908161110a5790505b5090505b838310156106b657600061113e836001611dae565b6000818152600660205260409020600781015491925090610100900460ff1615156001036112325760408051610180810182528254815260018301546001600160a01b039081166020830152600284015492820192909252600383015482166060820152600483015482166080820152600583015490911660a0820152600682015460c0820152600782015460ff808216151560e0840152610100918290041615159082015260088201546101208201526009820154610140820152600a820154610160820152835184908790811061121957611219611dc6565b602090810291909101015261122f600186611dae565b94505b61123d600185611dae565b93505050611129565b6002600054036112685760405162461bcd60e51b815260040161038b90611d4b565b60026000818155828152600660208190526040909120908101549101543482146112f05760405162461bcd60e51b815260206004820152603360248201527f506c65617365207375626d6974207468652061736b696e6720707269636520696044820152726e206f7264657220746f20636f6e74696e756560681b606482015260840161038b565b6000818152600660205260408082206003015490516001600160a01b03909116913480156108fc02929091818181858888f19350505050158015611338573d6000803e3d6000fd5b506040516323b872dd60e01b8152306004820152336024820152604481018490526001600160a01b038516906323b872dd90606401600060405180830381600087803b15801561138757600080fd5b505af115801561139b573d6000803e3d6000fd5b505050506113ad600280546001019055565b81600360008282546113bf9190611dae565b909155505060009081526006602081905260408220600481018054336001600160a01b03199182168117909255600383018054909116909117905560078101805460ff1916600190811790915591018290559055505050565b6060600061142560015490565b905060008060008367ffffffffffffffff81111561144557611445611d82565b60405190808252806020026020018201604052801561147e57816020015b61146b61193e565b8152602001906001900390816114635790505b5090505b838310156106b657600060068161149a856001611dae565b81526020810191909152604001600020600401546001600160a01b0316036115c05760006114c9836001611dae565b6000818152600660205260409020600781015491925090610100900460ff1615156001036115bd5760408051610180810182528254815260018301546001600160a01b039081166020830152600284015492820192909252600383015482166060820152600483015482166080820152600583015490911660a0820152600682015460c0820152600782015460ff808216151560e0840152610100918290041615159082015260088201546101208201526009820154610140820152600a82015461016082015283518490879081106115a4576115a4611dc6565b60209081029190910101526115ba600186611dae565b94505b50505b6115cb600183611dae565b9150611482565b6002600054036115f45760405162461bcd60e51b815260040161038b90611d4b565b6002600090815583815260076020908152604091829020825180840184523381528351601f860184900484028101840190945284845290926003840192828101919087908790819084018382808284376000920182905250939094525050835460018082018655948252602091829020845160029092020180546001600160a01b0319166001600160a01b03909216919091178155838201518051949591946116a394509185019201906119c7565b505060016000555050505050565b6000818152600760209081526040808320338452600190810190925282205460ff16151590036116e357506000919050565b600082815260076020908152604080832033845260020190915290205460ff16151560010361171457506001919050565b506002919050565b6060600061172960015490565b90506000806000805b8481101561178c57336006600061174a846001611dae565b81526020810191909152604001600020600501546001600160a01b03160361177a57611777600185611dae565b93505b8061178481611e8a565b915050611732565b5060008367ffffffffffffffff8111156117a8576117a8611d82565b6040519080825280602002602001820160405280156117e157816020015b6117ce61193e565b8152602001906001900390816117c65790505b5090505b848310156119355733600660006117fd856001611dae565b81526020810191909152604001600020600301546001600160a01b03160361192357600061182c836001611dae565b6000818152600660205260409020600781015491925090610100900460ff1615156001036119205760408051610180810182528254815260018301546001600160a01b039081166020830152600284015492820192909252600383015482166060820152600483015482166080820152600583015490911660a0820152600682015460c0820152600782015460ff808216151560e0840152610100918290041615159082015260088201546101208201526009820154610140820152600a820154610160820152835184908790811061190757611907611dc6565b602090810291909101015261191d600186611dae565b94505b50505b61192e600183611dae565b91506117e5565b95945050505050565b6040518061018001604052806000815260200160006001600160a01b031681526020016000815260200160006001600160a01b0316815260200160006001600160a01b0316815260200160006001600160a01b03168152602001600081526020016000151581526020016000151581526020016000815260200160008152602001600081525090565b8280546119d390611ddc565b90600052602060002090601f0160209004810192826119f55760008555611a3b565b82601f10611a0e57805160ff1916838001178555611a3b565b82800160010185558215611a3b579182015b82811115611a3b578251825591602001919060010190611a20565b50611a47929150611a4b565b5090565b5b80821115611a475760008155600101611a4c565b6001600160a01b0381168114611a7557600080fd5b50565b60008060408385031215611a8b57600080fd5b8235611a9681611a60565b946020939093013593505050565b600060208284031215611ab657600080fd5b5035919050565b805182526020810151611adb60208401826001600160a01b03169052565b50604081015160408301526060810151611b0060608401826001600160a01b03169052565b506080810151611b1b60808401826001600160a01b03169052565b5060a0810151611b3660a08401826001600160a01b03169052565b5060c081015160c083015260e0810151611b5460e084018215159052565b50610100818101511515908301526101208082015190830152610140808201519083015261016090810151910152565b6020808252825182820181905260009190848201906040850190845b81811015611bc757611bb3838551611abd565b928401926101809290920191600101611ba0565b50909695505050505050565b60006020808301818452808551808352604092508286019150828160051b8701018488016000805b84811015611c7c57898403603f19018652825180516001600160a01b031685528801518885018890528051888601819052835b81811015611c4a578281018b0151878201606001528a01611c2e565b81811115611c5b5784606083890101525b5096890196601f01601f191694909401606001935091870191600101611bfb565b50919998505050505050505050565b61018081016108498284611abd565b600080600060608486031215611caf57600080fd5b8335611cba81611a60565b95602085013595506040909401359392505050565b600080600060408486031215611ce457600080fd5b83359250602084013567ffffffffffffffff80821115611d0357600080fd5b818601915086601f830112611d1757600080fd5b813581811115611d2657600080fd5b876020828501011115611d3857600080fd5b6020830194508093505050509250925092565b6020808252601f908201527f5265656e7472616e637947756172643a207265656e7472616e742063616c6c00604082015260600190565b634e487b7160e01b600052604160045260246000fd5b634e487b7160e01b600052601160045260246000fd5b60008219821115611dc157611dc1611d98565b500190565b634e487b7160e01b600052603260045260246000fd5b600181811c90821680611df057607f821691505b602082108103611e1057634e487b7160e01b600052602260045260246000fd5b50919050565b600060208284031215611e2857600080fd5b8151611e3381611a60565b9392505050565b600082821015611e4c57611e4c611d98565b500390565b6001600160a01b03968716815294861660208601529290941660408401526060830152911515608082015290151560a082015260c00190565b600060018201611e9c57611e9c611d98565b506001019056fea2646970667358221220bcdc5c0654fc191fb604e0bf02946eb1d41a811c3a57a7815233368910a544c864736f6c634300080d0033",
  "immutableReferences": {},
  "source": "//SPDX-License-Identifier: MIT\r\npragma solidity ^0.8.4;\r\n\r\nimport '@openzeppelin/contracts/token/ERC721/ERC721.sol';\r\n// security against transactions for multiple request\r\nimport '@openzeppelin/contracts/security/ReentrancyGuard.sol';\r\nimport '@openzeppelin/contracts/utils/Counters.sol';\r\n\r\ncontract MemeMarketplace is ReentrancyGuard {\r\n    using Counters for Counters.Counter;\r\n\r\n    /* number of items minting, number of transactions, token that have not been sold\r\n    keep track of tokens total number - tokenId\r\n    arrays need to know the lentgth - help to keep track for arrays */\r\n\r\n    Counters.Counter private _tokenIds;\r\n    Counters.Counter private _tokensSold;\r\n    uint256 totalEthSold = 0;\r\n\r\n    // determine who is the owner of the contract\r\n    // charge a listing fee so the owner makes a commission\r\n\r\n    address payable owner;\r\n    // we are deploying to matic the API is the same so you can use ether the same as matic\r\n    // they both have 18 deimal\r\n    // mind the matic vs ether price!\r\n    uint256 listingPrice = 0.045 ether;\r\n\r\n    constructor() {\r\n        //set the owner\r\n        owner = payable(msg.sender);\r\n    }\r\n    // structs to hold the comments\r\n    struct Comment {\r\n        address addr;\r\n        string comment;\r\n    }\r\n\r\n    // comment, likes and dislikes\r\n    struct TokenLikesComment {\r\n        uint itemId;\r\n        mapping(address => bool) addToLike;\r\n        mapping(address => bool) addToDislike;\r\n        Comment[] comments;\r\n    }\r\n\r\n    // structs can act like objects\r\n\r\n    struct MarketToken {\r\n        uint itemId;\r\n        address nftContract;\r\n        uint256 tokenId;\r\n        address payable seller;\r\n        address payable owner;\r\n        address payable minter;\r\n        uint256 price;\r\n        bool sold;\r\n        bool isExist;\r\n        uint timeCreated;\r\n        uint likes;\r\n        uint dislikes;\r\n    }\r\n\r\n    // tokenId return which marketToken - fetch which one it is\r\n\r\n    mapping(uint256 => MarketToken) private idToMarketToken;\r\n\r\n    // tokenId to token likes dislike comment\r\n\r\n    mapping(uint256 => TokenLikesComment) private idToTokenLikes;\r\n\r\n    // listen to events for front end applications\r\n    event MarketTokenMinted(\r\n        uint indexed itemId,\r\n        address indexed nftContract,\r\n        uint indexed tokenId,\r\n        address seller,\r\n        address owner,\r\n        address minter,\r\n        uint256 price,\r\n        bool sold,\r\n        bool isExist\r\n    );\r\n\r\n    // listen to events of socials for front end applications\r\n    event TokenSocialEvent(\r\n        uint indexed itemId,\r\n        uint likes,\r\n        uint dislikes\r\n    );\r\n\r\n    // get the listing price\r\n    function getListingPrice() public view returns (uint256) {\r\n        return listingPrice;\r\n    }\r\n\r\n    // get the total sold\r\n    function getTotalSoldCount() public view returns (uint256) {\r\n        return _tokensSold.current();\r\n    }\r\n\r\n    // get the total sold in currency\r\n    function getTotalSold() public view returns (uint256) {\r\n        return totalEthSold;\r\n    }\r\n\r\n    function getCount() public view returns (uint) {\r\n        return _tokenIds.current();\r\n    }\r\n\r\n    // check the owner of NFTs\r\n    function getOwner(address nftContract, uint tokenId) public view returns (address) {\r\n        return IERC721(nftContract).ownerOf(tokenId);\r\n    }\r\n\r\n    // check if tokenId exists\r\n    function getSingleMarketToken(uint256 tokenId) public view returns (MarketToken memory) {\r\n        return idToMarketToken[tokenId];\r\n    }\r\n\r\n    // check if tokenId exists\r\n    function isTokenExists(uint256 tokenId) public view returns (bool) {\r\n        return idToMarketToken[tokenId].isExist;\r\n    }\r\n\r\n    // function to return all comments\r\n    function getComments(uint tokenId) public view returns (Comment[] memory) {\r\n        return idToTokenLikes[tokenId].comments;\r\n    }\r\n\r\n    // function to check if like or dislike or neither\r\n    function getLikeStatus(uint tokenId) public view returns (uint) {\r\n\r\n        if (idToTokenLikes[tokenId].addToLike[msg.sender] == true) {\r\n            return 0;\r\n        }\r\n\r\n        if (idToTokenLikes[tokenId].addToDislike[msg.sender] == true) {\r\n            return 1;\r\n        }\r\n\r\n        return 2;\r\n    }    \r\n\r\n    // create function to like a meme\r\n    function likeMeme(uint tokenId) public payable nonReentrant {\r\n        MarketToken storage m = idToMarketToken[tokenId];\r\n        TokenLikesComment storage mLike = idToTokenLikes[tokenId];\r\n        if (mLike.addToLike[msg.sender] == true) {\r\n            mLike.addToLike[msg.sender] = false;\r\n            m.likes-=1;\r\n        } else {\r\n            mLike.addToLike[msg.sender] = true;\r\n            m.likes+=1;\r\n            if (mLike.addToDislike[msg.sender] == true) {\r\n                m.dislikes-=1;\r\n                mLike.addToDislike[msg.sender] = false;\r\n            }\r\n        }\r\n        \r\n        // it is a good practice to emit event after modifying value transaction\r\n        emit TokenSocialEvent(tokenId, m.likes, m.dislikes);\r\n    }\r\n\r\n    // create function to dislike a meme\r\n    function dislikeMeme(uint tokenId) public payable nonReentrant {\r\n        MarketToken storage m = idToMarketToken[tokenId];\r\n        TokenLikesComment storage mLike = idToTokenLikes[tokenId];\r\n        if (mLike.addToDislike[msg.sender] == true) {\r\n            mLike.addToDislike[msg.sender] = false;\r\n            m.dislikes-=1;\r\n        } else {\r\n            mLike.addToDislike[msg.sender] = true;\r\n            m.dislikes+=1;\r\n            if (mLike.addToLike[msg.sender] == true) {\r\n                m.likes-=1;\r\n                mLike.addToLike[msg.sender] = false;\r\n            }\r\n        }\r\n\r\n        // it is a good practice to emit event after modifying value transaction\r\n        emit TokenSocialEvent(tokenId, m.likes, m.dislikes);\r\n    }\r\n\r\n    // create function to adda comment\r\n    function commentMeme(uint tokenId, string calldata comment) public payable nonReentrant {\r\n        TokenLikesComment storage mLike = idToTokenLikes[tokenId];\r\n        mLike.comments.push(Comment(msg.sender, comment));\r\n    }\r\n\r\n\r\n\r\n    // two functios to interact with contract\r\n    // 1. create a market item to put it up for sale\r\n    // 2. create a market sale for buying and selling between parties\r\n\r\n    function makeMarketItem(\r\n        address nftContract,\r\n        uint tokenId,\r\n        uint price\r\n    ) \r\n    public payable nonReentrant {\r\n        // nonReentrant is a modifier to prevent reentry attack\r\n\r\n        require(price > 0, 'Price must be at least one wei');\r\n        require(msg.value >= listingPrice, 'transaction value must be equal to listing price');\r\n        uint itemId;\r\n        // // approve marketplace\r\n        // IERC721(nftContract).approve(address(this),tokenId); \r\n        //NFT transaction\r\n        IERC721(nftContract).transferFrom(msg.sender, address(this), tokenId);\r\n\r\n        if (isTokenExists(tokenId)) {\r\n            // this mean token exist in marketplace before\r\n            idToMarketToken[tokenId].seller = payable(msg.sender);\r\n            idToMarketToken[tokenId].owner = payable(address(0));\r\n            idToMarketToken[tokenId].price = price;\r\n            idToMarketToken[tokenId].sold = false;\r\n          \r\n        } else {\r\n            // this mean token is new in market place\r\n            _tokenIds.increment();\r\n            itemId = _tokenIds.current();\r\n\r\n            //putting it up for sale - bool - no owner\r\n            MarketToken storage m = idToMarketToken[tokenId];\r\n            m.itemId = itemId;\r\n            m.nftContract = nftContract;\r\n            m.tokenId = tokenId;\r\n            m.seller = payable(msg.sender);\r\n            m.owner = payable(address(0));\r\n            m.minter = payable(msg.sender);\r\n            m.price = price;\r\n            m.sold = false;\r\n            m.isExist = true;\r\n            m.timeCreated = block.timestamp;\r\n            // idToMarketToken[tokenId] = MarketToken(\r\n            //     itemId,\r\n            //     nftContract,\r\n            //     tokenId,\r\n            //     payable(msg.sender),\r\n            //     payable(address(0)),\r\n            //     payable(msg.sender),\r\n            //     price,\r\n            //     false,\r\n            //     true,\r\n            //     block.timestamp          \r\n            // );\r\n        }\r\n\r\n\r\n    \r\n\r\n        emit MarketTokenMinted(\r\n            itemId, \r\n            nftContract, \r\n            tokenId, \r\n            payable(msg.sender), \r\n            address(0), \r\n            payable(msg.sender), \r\n            price, \r\n            false,\r\n            true\r\n        );\r\n\r\n    }\r\n\r\n    // two functios to interact with contract\r\n    // 1. create a market item but not sale\r\n\r\n    function makeMarketItemNonSale(\r\n        address nftContract,\r\n        uint tokenId\r\n    ) \r\n    public payable nonReentrant {\r\n        // nonReentrant is a modifier to prevent reentry attack\r\n\r\n        // require(price > 0, 'Price must be at least one wei');\r\n        // require(msg.value > listingPrice, 'transaction value must be equal to listing price');\r\n        uint itemId;\r\n        address ownerNow = IERC721(nftContract).ownerOf(tokenId);\r\n        require(payable(msg.sender) == ownerNow, 'You cannot manage this NFTs');\r\n        // require(msg.value >= listingPrice, 'transaction value must be equal to listing price');\r\n\r\n        if (isTokenExists(tokenId)) {\r\n            // this mean token exist in marketplace before\r\n            idToMarketToken[tokenId].seller = payable(msg.sender);\r\n            idToMarketToken[tokenId].owner = payable(msg.sender);\r\n            idToMarketToken[tokenId].sold = true;\r\n          \r\n        } else {\r\n            // this mean token is new in market place\r\n            _tokenIds.increment();\r\n            itemId = _tokenIds.current();\r\n\r\n            // referencing differently because of mapping inside struct\r\n            MarketToken storage m = idToMarketToken[tokenId];\r\n            m.itemId = itemId;\r\n            m.nftContract = nftContract;\r\n            m.tokenId = tokenId;\r\n            m.seller = payable(msg.sender);\r\n            m.owner = payable(msg.sender);\r\n            m.minter = payable(msg.sender);\r\n            m.price = 0;\r\n            m.sold = true;\r\n            m.isExist = true;\r\n            m.timeCreated = block.timestamp;\r\n\r\n            //putting it up for sale - bool - no owner\r\n            // idToMarketToken[tokenId] = MarketToken(\r\n            //     itemId,\r\n            //     nftContract,\r\n            //     tokenId,\r\n            //     payable(msg.sender),\r\n            //     payable(msg.sender),\r\n            //     payable(msg.sender),\r\n            //     0,\r\n            //     true,\r\n            //     true,\r\n            //     block.timestamp           \r\n            // );\r\n        }\r\n\r\n\r\n        emit MarketTokenMinted(\r\n            itemId, \r\n            nftContract, \r\n            tokenId, \r\n            payable(msg.sender), \r\n            address(0), \r\n            payable(msg.sender), \r\n            0, \r\n            false,\r\n            true\r\n        );\r\n\r\n    }\r\n\r\n    // function to conduct transactions and market sales\r\n\r\n    function createMarketSale(\r\n        address nftContract,\r\n        uint tokenId\r\n    )\r\n    public payable nonReentrant {\r\n        uint price = idToMarketToken[tokenId].price;\r\n        uint currTokenId = idToMarketToken[tokenId].tokenId;\r\n\r\n        require(msg.value == price, 'Please submit the asking price in order to continue');\r\n\r\n        // transfer the amount to the seller\r\n        idToMarketToken[currTokenId].seller.transfer(msg.value);\r\n\r\n        // transfer the token from contract address to the buyer\r\n        ERC721(nftContract).transferFrom(address(this), msg.sender, tokenId);\r\n        _tokensSold.increment();\r\n        totalEthSold += price;\r\n        idToMarketToken[currTokenId].owner = payable(msg.sender);\r\n        idToMarketToken[currTokenId].seller = payable(msg.sender);\r\n        idToMarketToken[currTokenId].sold = true;\r\n        idToMarketToken[currTokenId].price = 0;\r\n\r\n\r\n        // payable(owner).transfer(listingPrice);\r\n\r\n    }\r\n\r\n    // function to cancel NFT listing\r\n\r\n    function cancelMarketSale(\r\n        address nftContract,\r\n        uint tokenId\r\n    )\r\n    public payable nonReentrant {\r\n\r\n\r\n\r\n\r\n        // uint price = idToMarketToken[tokenId].price;\r\n        uint currTokenId = idToMarketToken[tokenId].tokenId;\r\n\r\n        // address ownerNow = IERC721(nftContract).ownerOf(tokenId);\r\n        require(payable(msg.sender) == idToMarketToken[currTokenId].seller, 'You cannot manage this NFTs');\r\n\r\n\r\n        // transfer the token from contract address to the owner back\r\n        ERC721(nftContract).transferFrom(address(this), msg.sender, tokenId);\r\n        idToMarketToken[currTokenId].owner = payable(msg.sender);\r\n        idToMarketToken[currTokenId].seller = payable(msg.sender);\r\n        idToMarketToken[currTokenId].sold = true;\r\n        idToMarketToken[currTokenId].price = 0;\r\n        // _tokensSold.increment();\r\n\r\n        // transfer back the listing price\r\n        // idToMarketToken[currTokenId].seller.transfer(listingPrice);\r\n\r\n    }\r\n\r\n    //function to fetchMarketItems - minting, buying and selling\r\n    // return the number of unsold items\r\n\r\n    function fetchMarketTokens() public view returns(MarketToken[] memory) {\r\n        uint itemCount = _tokenIds.current();\r\n        // uint unsoldItemCount = itemCount - _tokensSold.current();\r\n        uint currentIndex = 0;\r\n        uint checkingIndex = 0;\r\n\r\n        // looping over the number of items created (if number has not been sold populate the array)\r\n        MarketToken[] memory items = new MarketToken[](itemCount);\r\n        while (currentIndex < itemCount) {\r\n            if (idToMarketToken[checkingIndex + 1].owner == address(0)) {\r\n                uint currentId = checkingIndex + 1;\r\n                MarketToken storage currentItem = idToMarketToken[currentId];\r\n                if (currentItem.isExist == true) {\r\n                    items[currentIndex] = currentItem;\r\n                    currentIndex += 1;\r\n                }\r\n\r\n            }\r\n            checkingIndex +=1;\r\n        }\r\n        return items;\r\n    }\r\n\r\n    // return nfts that the user has purchased\r\n\r\n    function fetchMyNFTs() public view returns (MarketToken[] memory) {\r\n        uint totalItemCount = _tokenIds.current();\r\n        // a second counter for each individual user\r\n        uint currentIndex = 0;\r\n        uint checkingIndex = 0;\r\n\r\n        // for (uint i = 0; i < totalItemCount; i++) {\r\n        //     if(idToMarketToken[i + 1].owner == msg.sender || idToMarketToken[i + 1].owner == payable(msg.sender)) {\r\n        //         itemCount += 1;\r\n        //     }\r\n        // }\r\n\r\n\r\n        MarketToken[] memory items = new MarketToken[](totalItemCount);\r\n        while (currentIndex < totalItemCount) {\r\n            if (idToMarketToken[checkingIndex + 1].owner == msg.sender || idToMarketToken[checkingIndex + 1].seller == msg.sender) {\r\n                uint currentId = checkingIndex + 1;\r\n                // current array\r\n                MarketToken storage currentItem = idToMarketToken[currentId];\r\n                if (currentItem.isExist == true) {\r\n                    items[currentIndex] = currentItem;\r\n                    currentIndex += 1;\r\n                }\r\n\r\n            }\r\n            checkingIndex +=1;\r\n        }\r\n        return items;\r\n    }\r\n\r\n    //function for returning an array of minted nfts\r\n    function fetchItemsCreated() public view returns(MarketToken[] memory) {\r\n        // insted of owner, it will be the seller\r\n        uint totalItemCount = _tokenIds.current();\r\n        uint itemCount = 0;\r\n        uint currentIndex = 0;\r\n        uint checkingIndex = 0;\r\n\r\n        for (uint i = 0; i < totalItemCount; i++) {\r\n            if (idToMarketToken[i + 1].minter == msg.sender) {\r\n                itemCount += 1;\r\n            }\r\n        }\r\n\r\n        MarketToken[] memory items = new MarketToken[](itemCount);\r\n\r\n        while (currentIndex < totalItemCount) {\r\n            if (idToMarketToken[checkingIndex + 1].seller == msg.sender) {\r\n                uint currentId = checkingIndex + 1;\r\n                MarketToken storage currentItem = idToMarketToken[currentId];\r\n                if (currentItem.isExist == true) {\r\n                    items[currentIndex] = currentItem;\r\n                    currentIndex += 1;\r\n                }\r\n                \r\n            }\r\n            checkingIndex += 1;\r\n        }\r\n        return items;\r\n    }\r\n\r\n    //function to fetchAllItems - \r\n    // return the number of all items\r\n\r\n    function fetchMarketAllTokens() public view returns(MarketToken[] memory) {\r\n        uint itemCount = _tokenIds.current();\r\n        // uint unsoldItemCount = itemCount - _tokensSold.current();\r\n        uint currentIndex = 0;\r\n        uint checkingIndex = 0;\r\n\r\n        // looping over the number of items created (if number has not been sold populate the array)\r\n        MarketToken[] memory items = new MarketToken[](itemCount);\r\n        while (currentIndex < itemCount) {\r\n\r\n            uint currentId = checkingIndex + 1;\r\n            MarketToken storage currentItem = idToMarketToken[currentId];\r\n            if (currentItem.isExist == true) {\r\n                items[currentIndex] = currentItem;\r\n                currentIndex += 1;\r\n            }\r\n            checkingIndex +=1;\r\n        }\r\n        return items;\r\n    }\r\n\r\n\r\n\r\n}",
  "sourcePath": "D:\\react-next-js\\meme-chain\\contracts\\MemeMarketplace.sol",
  "compiler": {
    "name": "solc",
    "version": "0.8.13+commit.abaa5c0e.Emscripten.clang"
  },
  "schemaVersion": "3.4.7",
  "updatedAt": "2022-07-10T01:57:01.687Z",
  "networkType": "ethereum",
  "devdoc": {
    "kind": "dev",
    "methods": {},
    "version": 1
  },
  "userdoc": {
    "kind": "user",
    "methods": {},
    "version": 1
  }
}