{
  "contractName": "MemeMarketplaceV2",
  "abi": [
    {
      "inputs": [],
      "stateMutability": "nonpayable",
      "type": "constructor"
    },
    {
      "anonymous": false,
      "inputs": [
        {
          "indexed": true,
          "internalType": "address",
          "name": "owner",
          "type": "address"
        },
        {
          "indexed": true,
          "internalType": "address",
          "name": "approved",
          "type": "address"
        },
        {
          "indexed": true,
          "internalType": "uint256",
          "name": "tokenId",
          "type": "uint256"
        }
      ],
      "name": "Approval",
      "type": "event"
    },
    {
      "anonymous": false,
      "inputs": [
        {
          "indexed": true,
          "internalType": "address",
          "name": "owner",
          "type": "address"
        },
        {
          "indexed": true,
          "internalType": "address",
          "name": "operator",
          "type": "address"
        },
        {
          "indexed": false,
          "internalType": "bool",
          "name": "approved",
          "type": "bool"
        }
      ],
      "name": "ApprovalForAll",
      "type": "event"
    },
    {
      "anonymous": false,
      "inputs": [
        {
          "indexed": true,
          "internalType": "uint256",
          "name": "itemId",
          "type": "uint256"
        },
        {
          "indexed": true,
          "internalType": "address",
          "name": "nftContract",
          "type": "address"
        },
        {
          "indexed": true,
          "internalType": "uint256",
          "name": "tokenId",
          "type": "uint256"
        },
        {
          "indexed": false,
          "internalType": "address",
          "name": "seller",
          "type": "address"
        },
        {
          "indexed": false,
          "internalType": "address",
          "name": "owner",
          "type": "address"
        },
        {
          "indexed": false,
          "internalType": "address",
          "name": "minter",
          "type": "address"
        },
        {
          "indexed": false,
          "internalType": "uint256",
          "name": "price",
          "type": "uint256"
        },
        {
          "indexed": false,
          "internalType": "bool",
          "name": "sold",
          "type": "bool"
        },
        {
          "indexed": false,
          "internalType": "bool",
          "name": "isExist",
          "type": "bool"
        }
      ],
      "name": "MarketTokenMinted",
      "type": "event"
    },
    {
      "anonymous": false,
      "inputs": [
        {
          "indexed": true,
          "internalType": "uint256",
          "name": "itemId",
          "type": "uint256"
        },
        {
          "indexed": false,
          "internalType": "uint256",
          "name": "likes",
          "type": "uint256"
        },
        {
          "indexed": false,
          "internalType": "uint256",
          "name": "dislikes",
          "type": "uint256"
        }
      ],
      "name": "TokenSocialEvent",
      "type": "event"
    },
    {
      "anonymous": false,
      "inputs": [
        {
          "indexed": true,
          "internalType": "address",
          "name": "from",
          "type": "address"
        },
        {
          "indexed": true,
          "internalType": "address",
          "name": "to",
          "type": "address"
        },
        {
          "indexed": true,
          "internalType": "uint256",
          "name": "tokenId",
          "type": "uint256"
        }
      ],
      "name": "Transfer",
      "type": "event"
    },
    {
      "inputs": [
        {
          "internalType": "address",
          "name": "to",
          "type": "address"
        },
        {
          "internalType": "uint256",
          "name": "tokenId",
          "type": "uint256"
        }
      ],
      "name": "approve",
      "outputs": [],
      "stateMutability": "nonpayable",
      "type": "function"
    },
    {
      "inputs": [
        {
          "internalType": "address",
          "name": "owner",
          "type": "address"
        }
      ],
      "name": "balanceOf",
      "outputs": [
        {
          "internalType": "uint256",
          "name": "",
          "type": "uint256"
        }
      ],
      "stateMutability": "view",
      "type": "function",
      "constant": true
    },
    {
      "inputs": [
        {
          "internalType": "uint256",
          "name": "tokenId",
          "type": "uint256"
        }
      ],
      "name": "getApproved",
      "outputs": [
        {
          "internalType": "address",
          "name": "",
          "type": "address"
        }
      ],
      "stateMutability": "view",
      "type": "function",
      "constant": true
    },
    {
      "inputs": [
        {
          "internalType": "address",
          "name": "owner",
          "type": "address"
        },
        {
          "internalType": "address",
          "name": "operator",
          "type": "address"
        }
      ],
      "name": "isApprovedForAll",
      "outputs": [
        {
          "internalType": "bool",
          "name": "",
          "type": "bool"
        }
      ],
      "stateMutability": "view",
      "type": "function",
      "constant": true
    },
    {
      "inputs": [],
      "name": "name",
      "outputs": [
        {
          "internalType": "string",
          "name": "",
          "type": "string"
        }
      ],
      "stateMutability": "view",
      "type": "function",
      "constant": true
    },
    {
      "inputs": [
        {
          "internalType": "uint256",
          "name": "tokenId",
          "type": "uint256"
        }
      ],
      "name": "ownerOf",
      "outputs": [
        {
          "internalType": "address",
          "name": "",
          "type": "address"
        }
      ],
      "stateMutability": "view",
      "type": "function",
      "constant": true
    },
    {
      "inputs": [
        {
          "internalType": "address",
          "name": "from",
          "type": "address"
        },
        {
          "internalType": "address",
          "name": "to",
          "type": "address"
        },
        {
          "internalType": "uint256",
          "name": "tokenId",
          "type": "uint256"
        }
      ],
      "name": "safeTransferFrom",
      "outputs": [],
      "stateMutability": "nonpayable",
      "type": "function"
    },
    {
      "inputs": [
        {
          "internalType": "address",
          "name": "from",
          "type": "address"
        },
        {
          "internalType": "address",
          "name": "to",
          "type": "address"
        },
        {
          "internalType": "uint256",
          "name": "tokenId",
          "type": "uint256"
        },
        {
          "internalType": "bytes",
          "name": "_data",
          "type": "bytes"
        }
      ],
      "name": "safeTransferFrom",
      "outputs": [],
      "stateMutability": "nonpayable",
      "type": "function"
    },
    {
      "inputs": [
        {
          "internalType": "address",
          "name": "operator",
          "type": "address"
        },
        {
          "internalType": "bool",
          "name": "approved",
          "type": "bool"
        }
      ],
      "name": "setApprovalForAll",
      "outputs": [],
      "stateMutability": "nonpayable",
      "type": "function"
    },
    {
      "inputs": [
        {
          "internalType": "bytes4",
          "name": "interfaceId",
          "type": "bytes4"
        }
      ],
      "name": "supportsInterface",
      "outputs": [
        {
          "internalType": "bool",
          "name": "",
          "type": "bool"
        }
      ],
      "stateMutability": "view",
      "type": "function",
      "constant": true
    },
    {
      "inputs": [],
      "name": "symbol",
      "outputs": [
        {
          "internalType": "string",
          "name": "",
          "type": "string"
        }
      ],
      "stateMutability": "view",
      "type": "function",
      "constant": true
    },
    {
      "inputs": [
        {
          "internalType": "uint256",
          "name": "tokenId",
          "type": "uint256"
        }
      ],
      "name": "tokenURI",
      "outputs": [
        {
          "internalType": "string",
          "name": "",
          "type": "string"
        }
      ],
      "stateMutability": "view",
      "type": "function",
      "constant": true
    },
    {
      "inputs": [
        {
          "internalType": "address",
          "name": "from",
          "type": "address"
        },
        {
          "internalType": "address",
          "name": "to",
          "type": "address"
        },
        {
          "internalType": "uint256",
          "name": "tokenId",
          "type": "uint256"
        }
      ],
      "name": "transferFrom",
      "outputs": [],
      "stateMutability": "nonpayable",
      "type": "function"
    },
    {
      "inputs": [],
      "name": "getListingPrice",
      "outputs": [
        {
          "internalType": "uint256",
          "name": "",
          "type": "uint256"
        }
      ],
      "stateMutability": "view",
      "type": "function",
      "constant": true
    },
    {
      "inputs": [],
      "name": "getTotalSoldCount",
      "outputs": [
        {
          "internalType": "uint256",
          "name": "",
          "type": "uint256"
        }
      ],
      "stateMutability": "view",
      "type": "function",
      "constant": true
    },
    {
      "inputs": [],
      "name": "getTotalSold",
      "outputs": [
        {
          "internalType": "uint256",
          "name": "",
          "type": "uint256"
        }
      ],
      "stateMutability": "view",
      "type": "function",
      "constant": true
    },
    {
      "inputs": [],
      "name": "getCount",
      "outputs": [
        {
          "internalType": "uint256",
          "name": "",
          "type": "uint256"
        }
      ],
      "stateMutability": "view",
      "type": "function",
      "constant": true
    },
    {
      "inputs": [
        {
          "internalType": "uint256",
          "name": "tokenId",
          "type": "uint256"
        }
      ],
      "name": "getOwner",
      "outputs": [
        {
          "internalType": "address",
          "name": "",
          "type": "address"
        }
      ],
      "stateMutability": "view",
      "type": "function",
      "constant": true
    },
    {
      "inputs": [
        {
          "internalType": "uint256",
          "name": "tokenId",
          "type": "uint256"
        }
      ],
      "name": "getSingleMarketToken",
      "outputs": [
        {
          "components": [
            {
              "internalType": "uint256",
              "name": "itemId",
              "type": "uint256"
            },
            {
              "internalType": "address",
              "name": "nftContract",
              "type": "address"
            },
            {
              "internalType": "uint256",
              "name": "tokenId",
              "type": "uint256"
            },
            {
              "internalType": "address payable",
              "name": "seller",
              "type": "address"
            },
            {
              "internalType": "address payable",
              "name": "owner",
              "type": "address"
            },
            {
              "internalType": "address payable",
              "name": "minter",
              "type": "address"
            },
            {
              "internalType": "uint256",
              "name": "price",
              "type": "uint256"
            },
            {
              "internalType": "bool",
              "name": "sold",
              "type": "bool"
            },
            {
              "internalType": "bool",
              "name": "isExist",
              "type": "bool"
            },
            {
              "internalType": "uint256",
              "name": "timeCreated",
              "type": "uint256"
            },
            {
              "internalType": "uint256",
              "name": "likes",
              "type": "uint256"
            },
            {
              "internalType": "uint256",
              "name": "dislikes",
              "type": "uint256"
            }
          ],
          "internalType": "struct MemeMarketplaceV2.MarketToken",
          "name": "",
          "type": "tuple"
        }
      ],
      "stateMutability": "view",
      "type": "function",
      "constant": true
    },
    {
      "inputs": [
        {
          "internalType": "uint256",
          "name": "tokenId",
          "type": "uint256"
        }
      ],
      "name": "isTokenExists",
      "outputs": [
        {
          "internalType": "bool",
          "name": "",
          "type": "bool"
        }
      ],
      "stateMutability": "view",
      "type": "function",
      "constant": true
    },
    {
      "inputs": [
        {
          "internalType": "uint256",
          "name": "tokenId",
          "type": "uint256"
        }
      ],
      "name": "getComments",
      "outputs": [
        {
          "components": [
            {
              "internalType": "address",
              "name": "addr",
              "type": "address"
            },
            {
              "internalType": "string",
              "name": "comment",
              "type": "string"
            }
          ],
          "internalType": "struct MemeMarketplaceV2.Comment[]",
          "name": "",
          "type": "tuple[]"
        }
      ],
      "stateMutability": "view",
      "type": "function",
      "constant": true
    },
    {
      "inputs": [
        {
          "internalType": "uint256",
          "name": "tokenId",
          "type": "uint256"
        }
      ],
      "name": "getLikeStatus",
      "outputs": [
        {
          "internalType": "uint256",
          "name": "",
          "type": "uint256"
        }
      ],
      "stateMutability": "view",
      "type": "function",
      "constant": true
    },
    {
      "inputs": [
        {
          "internalType": "uint256",
          "name": "newItemId",
          "type": "uint256"
        },
        {
          "internalType": "string",
          "name": "tokenURI",
          "type": "string"
        }
      ],
      "name": "mintToken",
      "outputs": [
        {
          "internalType": "uint256",
          "name": "",
          "type": "uint256"
        }
      ],
      "stateMutability": "nonpayable",
      "type": "function"
    },
    {
      "inputs": [
        {
          "internalType": "uint256",
          "name": "tokenId",
          "type": "uint256"
        }
      ],
      "name": "likeMeme",
      "outputs": [],
      "stateMutability": "payable",
      "type": "function",
      "payable": true
    },
    {
      "inputs": [
        {
          "internalType": "uint256",
          "name": "tokenId",
          "type": "uint256"
        }
      ],
      "name": "dislikeMeme",
      "outputs": [],
      "stateMutability": "payable",
      "type": "function",
      "payable": true
    },
    {
      "inputs": [
        {
          "internalType": "uint256",
          "name": "tokenId",
          "type": "uint256"
        },
        {
          "internalType": "string",
          "name": "comment",
          "type": "string"
        }
      ],
      "name": "commentMeme",
      "outputs": [],
      "stateMutability": "payable",
      "type": "function",
      "payable": true
    },
    {
      "inputs": [
        {
          "internalType": "uint256",
          "name": "tokenId",
          "type": "uint256"
        },
        {
          "internalType": "uint256",
          "name": "price",
          "type": "uint256"
        },
        {
          "internalType": "string",
          "name": "tokenURI",
          "type": "string"
        }
      ],
      "name": "makeMarketItem",
      "outputs": [],
      "stateMutability": "payable",
      "type": "function",
      "payable": true
    },
    {
      "inputs": [
        {
          "internalType": "uint256",
          "name": "tokenId",
          "type": "uint256"
        },
        {
          "internalType": "string",
          "name": "tokenURI",
          "type": "string"
        }
      ],
      "name": "makeMarketItemNonSale",
      "outputs": [],
      "stateMutability": "payable",
      "type": "function",
      "payable": true
    },
    {
      "inputs": [
        {
          "internalType": "uint256",
          "name": "tokenId",
          "type": "uint256"
        }
      ],
      "name": "createMarketSale",
      "outputs": [],
      "stateMutability": "payable",
      "type": "function",
      "payable": true
    },
    {
      "inputs": [
        {
          "internalType": "uint256",
          "name": "tokenId",
          "type": "uint256"
        }
      ],
      "name": "cancelMarketSale",
      "outputs": [],
      "stateMutability": "payable",
      "type": "function",
      "payable": true
    },
    {
      "inputs": [],
      "name": "fetchMarketTokens",
      "outputs": [
        {
          "components": [
            {
              "internalType": "uint256",
              "name": "itemId",
              "type": "uint256"
            },
            {
              "internalType": "address",
              "name": "nftContract",
              "type": "address"
            },
            {
              "internalType": "uint256",
              "name": "tokenId",
              "type": "uint256"
            },
            {
              "internalType": "address payable",
              "name": "seller",
              "type": "address"
            },
            {
              "internalType": "address payable",
              "name": "owner",
              "type": "address"
            },
            {
              "internalType": "address payable",
              "name": "minter",
              "type": "address"
            },
            {
              "internalType": "uint256",
              "name": "price",
              "type": "uint256"
            },
            {
              "internalType": "bool",
              "name": "sold",
              "type": "bool"
            },
            {
              "internalType": "bool",
              "name": "isExist",
              "type": "bool"
            },
            {
              "internalType": "uint256",
              "name": "timeCreated",
              "type": "uint256"
            },
            {
              "internalType": "uint256",
              "name": "likes",
              "type": "uint256"
            },
            {
              "internalType": "uint256",
              "name": "dislikes",
              "type": "uint256"
            }
          ],
          "internalType": "struct MemeMarketplaceV2.MarketToken[]",
          "name": "",
          "type": "tuple[]"
        }
      ],
      "stateMutability": "view",
      "type": "function",
      "constant": true
    },
    {
      "inputs": [],
      "name": "fetchMyNFTs",
      "outputs": [
        {
          "components": [
            {
              "internalType": "uint256",
              "name": "itemId",
              "type": "uint256"
            },
            {
              "internalType": "address",
              "name": "nftContract",
              "type": "address"
            },
            {
              "internalType": "uint256",
              "name": "tokenId",
              "type": "uint256"
            },
            {
              "internalType": "address payable",
              "name": "seller",
              "type": "address"
            },
            {
              "internalType": "address payable",
              "name": "owner",
              "type": "address"
            },
            {
              "internalType": "address payable",
              "name": "minter",
              "type": "address"
            },
            {
              "internalType": "uint256",
              "name": "price",
              "type": "uint256"
            },
            {
              "internalType": "bool",
              "name": "sold",
              "type": "bool"
            },
            {
              "internalType": "bool",
              "name": "isExist",
              "type": "bool"
            },
            {
              "internalType": "uint256",
              "name": "timeCreated",
              "type": "uint256"
            },
            {
              "internalType": "uint256",
              "name": "likes",
              "type": "uint256"
            },
            {
              "internalType": "uint256",
              "name": "dislikes",
              "type": "uint256"
            }
          ],
          "internalType": "struct MemeMarketplaceV2.MarketToken[]",
          "name": "",
          "type": "tuple[]"
        }
      ],
      "stateMutability": "view",
      "type": "function",
      "constant": true
    },
    {
      "inputs": [],
      "name": "fetchMarketAllTokens",
      "outputs": [
        {
          "components": [
            {
              "internalType": "uint256",
              "name": "itemId",
              "type": "uint256"
            },
            {
              "internalType": "address",
              "name": "nftContract",
              "type": "address"
            },
            {
              "internalType": "uint256",
              "name": "tokenId",
              "type": "uint256"
            },
            {
              "internalType": "address payable",
              "name": "seller",
              "type": "address"
            },
            {
              "internalType": "address payable",
              "name": "owner",
              "type": "address"
            },
            {
              "internalType": "address payable",
              "name": "minter",
              "type": "address"
            },
            {
              "internalType": "uint256",
              "name": "price",
              "type": "uint256"
            },
            {
              "internalType": "bool",
              "name": "sold",
              "type": "bool"
            },
            {
              "internalType": "bool",
              "name": "isExist",
              "type": "bool"
            },
            {
              "internalType": "uint256",
              "name": "timeCreated",
              "type": "uint256"
            },
            {
              "internalType": "uint256",
              "name": "likes",
              "type": "uint256"
            },
            {
              "internalType": "uint256",
              "name": "dislikes",
              "type": "uint256"
            }
          ],
          "internalType": "struct MemeMarketplaceV2.MarketToken[]",
          "name": "",
          "type": "tuple[]"
        }
      ],
      "stateMutability": "view",
      "type": "function",
      "constant": true
    }
  ],
  "bytecode": "0x60806040526000600a55669fdf42f6e48000600c553480156200002157600080fd5b50604080518082018252600b81526a3943686971204d656d657360a81b60208083019182528351808501909452600684526538436869717360d01b9084015281519192916200007391600091620000a9565b50805162000089906001906020840190620000a9565b5050600160075550600b80546001600160a01b031916331790556200018b565b828054620000b7906200014f565b90600052602060002090601f016020900481019282620000db576000855562000126565b82601f10620000f657805160ff191683800117855562000126565b8280016001018555821562000126579182015b828111156200012657825182559160200191906001019062000109565b506200013492915062000138565b5090565b5b8082111562000134576000815560010162000139565b600181811c908216806200016457607f821691505b6020821081036200018557634e487b7160e01b600052602260045260246000fd5b50919050565b61314d806200019b6000396000f3fe6080604052600436106101ee5760003560e01c80639c55a70f1161010d578063c41a360a116100a0578063cfd825a21161006f578063cfd825a214610561578063dd5cf66d14610574578063de4f72a314610587578063e985e9c5146105a7578063fa73680d146105f057600080fd5b8063c41a360a146104f9578063c69bdf7514610519578063c87b56dd1461052e578063ce69f7671461054e57600080fd5b8063ae76cd4f116100dc578063ae76cd4f1461049c578063ae78cea1146104b1578063b88d4fde146104c6578063be9af536146104e657600080fd5b80639c55a70f1461043f5780639d7b8e6814610452578063a22cb46514610467578063a87d942c1461048757600080fd5b806323edf697116101855780636352211e116101545780636352211e146103ca57806370a08231146103ea578063752312a91461040a57806395d89b411461042a57600080fd5b806323edf6971461033d57806331f2479c1461036a57806342842e0e14610397578063634a2bd8146103b757600080fd5b806312e85585116101c157806312e85585146102a45780631f701704146102c3578063202e3740146102fb57806323b872dd1461031d57600080fd5b806301ffc9a7146101f357806306fdde0314610228578063081812fc1461024a578063095ea7b314610282575b600080fd5b3480156101ff57600080fd5b5061021361020e3660046128e5565b610603565b60405190151581526020015b60405180910390f35b34801561023457600080fd5b5061023d610655565b60405161021f919061295a565b34801561025657600080fd5b5061026a61026536600461296d565b6106e7565b6040516001600160a01b03909116815260200161021f565b34801561028e57600080fd5b506102a261029d36600461299b565b610774565b005b3480156102b057600080fd5b50600c545b60405190815260200161021f565b3480156102cf57600080fd5b506102136102de36600461296d565b6000908152600d6020526040902060070154610100900460ff1690565b34801561030757600080fd5b50610310610889565b60405161021f9190612a8e565b34801561032957600080fd5b506102a2610338366004612add565b610a81565b34801561034957600080fd5b5061035d61035836600461296d565b610ab2565b60405161021f9190612b1e565b34801561037657600080fd5b5061038a61038536600461296d565b610bce565b60405161021f9190612b9b565b3480156103a357600080fd5b506102a26103b2366004612add565b610c8a565b6102a26103c536600461296d565b610ca5565b3480156103d657600080fd5b5061026a6103e536600461296d565b610e1c565b3480156103f657600080fd5b506102b5610405366004612baa565b610e93565b34801561041657600080fd5b506102b5610425366004612c73565b610f1a565b34801561043657600080fd5b5061023d610f42565b6102a261044d36600461296d565b610f51565b34801561045e57600080fd5b50600a546102b5565b34801561047357600080fd5b506102a2610482366004612cba565b6110a8565b34801561049357600080fd5b506102b56110b7565b3480156104a857600080fd5b506102b56110c7565b3480156104bd57600080fd5b506103106110d2565b3480156104d257600080fd5b506102a26104e1366004612cf8565b611259565b6102a26104f436600461296d565b611291565b34801561050557600080fd5b5061026a61051436600461296d565b611468565b34801561052557600080fd5b506103106114cb565b34801561053a57600080fd5b5061023d61054936600461296d565b611683565b6102a261055c366004612d78565b6117f1565b6102a261056f36600461296d565b6118d0565b6102a2610582366004612c73565b611a20565b34801561059357600080fd5b506102b56105a236600461296d565b611c05565b3480156105b357600080fd5b506102136105c2366004612df4565b6001600160a01b03918216600090815260056020908152604080832093909416825291909152205460ff1690565b6102a26105fe366004612e22565b611c70565b60006001600160e01b031982166380ac58cd60e01b148061063457506001600160e01b03198216635b5e139f60e01b145b8061064f57506301ffc9a760e01b6001600160e01b03198316145b92915050565b60606000805461066490612e72565b80601f016020809104026020016040519081016040528092919081815260200182805461069090612e72565b80156106dd5780601f106106b2576101008083540402835291602001916106dd565b820191906000526020600020905b8154815290600101906020018083116106c057829003601f168201915b5050505050905090565b60006106f282611f01565b6107585760405162461bcd60e51b815260206004820152602c60248201527f4552433732313a20617070726f76656420717565727920666f72206e6f6e657860448201526b34b9ba32b73a103a37b5b2b760a11b60648201526084015b60405180910390fd5b506000908152600460205260409020546001600160a01b031690565b600061077f82610e1c565b9050806001600160a01b0316836001600160a01b0316036107ec5760405162461bcd60e51b815260206004820152602160248201527f4552433732313a20617070726f76616c20746f2063757272656e74206f776e656044820152603960f91b606482015260840161074f565b336001600160a01b0382161480610808575061080881336105c2565b61087a5760405162461bcd60e51b815260206004820152603860248201527f4552433732313a20617070726f76652063616c6c6572206973206e6f74206f7760448201527f6e6572206e6f7220617070726f76656420666f7220616c6c0000000000000000606482015260840161074f565b6108848383611f1e565b505050565b6060600061089660085490565b905060008060008367ffffffffffffffff8111156108b6576108b6612bc7565b6040519080825280602002602001820160405280156108ef57816020015b6108dc6127aa565b8152602001906001900390816108d45790505b5090505b83821015610a795733600d600061090b856001612ec2565b81526020810191909152604001600020600401546001600160a01b0316148061095e575033600d600061093f856001612ec2565b81526020810191909152604001600020600301546001600160a01b0316145b15610a67576000610970836001612ec2565b6000818152600d60205260409020600781015491925090610100900460ff161515600103610a645760408051610180810182528254815260018301546001600160a01b039081166020830152600284015492820192909252600383015482166060820152600483015482166080820152600583015490911660a0820152600682015460c0820152600782015460ff808216151560e0840152610100918290041615159082015260088201546101208201526009820154610140820152600a8201546101608201528351849087908110610a4b57610a4b612eda565b6020908102919091010152610a61600186612ec2565b94505b50505b610a72600183612ec2565b91506108f3565b949350505050565b610a8b3382611f8c565b610aa75760405162461bcd60e51b815260040161074f90612ef0565b610884838383612075565b6060600e6000838152602001908152602001600020600301805480602002602001604051908101604052809291908181526020016000905b82821015610bc3576000848152602090819020604080518082019091526002850290910180546001600160a01b031682526001810180549293919291840191610b3290612e72565b80601f0160208091040260200160405190810160405280929190818152602001828054610b5e90612e72565b8015610bab5780601f10610b8057610100808354040283529160200191610bab565b820191906000526020600020905b815481529060010190602001808311610b8e57829003601f168201915b50505050508152505081526020019060010190610aea565b505050509050919050565b610bd66127aa565b506000908152600d60209081526040918290208251610180810184528154815260018201546001600160a01b0390811693820193909352600282015493810193909352600381015482166060840152600481015482166080840152600581015490911660a0830152600681015460c0830152600781015460ff808216151560e0850152610100918290041615159083015260088101546101208301526009810154610140830152600a015461016082015290565b61088483838360405180602001604052806000815250611259565b600260075403610cc75760405162461bcd60e51b815260040161074f90612f41565b600260078190556000828152600d60209081526040808320600e83528184203385529485019092529091205490919060ff161515600103610d3b573360009081526002820160205260408120805460ff19169055600a8301805460019290610d30908490612f78565b90915550610dc79050565b3360009081526002820160205260408120805460ff19166001908117909155600a8401805491929091610d6f908490612ec2565b9091555050336000908152600180830160205260409091205460ff1615159003610dc7576001826009016000828254610da89190612f78565b90915550503360009081526001820160205260409020805460ff191690555b827ff49c1ce45188f667b0f55bb9e92eeeb8bc7fcabe5ae102ba9e50d0495192a715836009015484600a0154604051610e0a929190918252602082015260400190565b60405180910390a25050600160075550565b6000818152600260205260408120546001600160a01b03168061064f5760405162461bcd60e51b815260206004820152602960248201527f4552433732313a206f776e657220717565727920666f72206e6f6e657869737460448201526832b73a103a37b5b2b760b91b606482015260840161074f565b60006001600160a01b038216610efe5760405162461bcd60e51b815260206004820152602a60248201527f4552433732313a2062616c616e636520717565727920666f7220746865207a65604482015269726f206164647265737360b01b606482015260840161074f565b506001600160a01b031660009081526003602052604090205490565b6000610f263384612211565b610f308383612344565b610f3b3060016110a8565b5090919050565b60606001805461066490612e72565b600260075403610f735760405162461bcd60e51b815260040161074f90612f41565b60026007556000818152600d60209081526040808320600e835281842033855260018082019094529190932054909160ff90911615159003610fde57336000908152600180830160205260408220805460ff1916905560098401805491929091610d30908490612f78565b336000908152600182810160205260408220805460ff1916821790556009840180549192909161100f908490612ec2565b909155505033600090815260028201602052604090205460ff161515600103610dc757600182600a0160008282546110479190612f78565b90915550503360009081526002820160205260409020805460ff19169055827ff49c1ce45188f667b0f55bb9e92eeeb8bc7fcabe5ae102ba9e50d0495192a715836009015484600a0154604051610e0a929190918252602082015260400190565b6110b33383836123cf565b5050565b60006110c260085490565b905090565b60006110c260095490565b606060006110df60085490565b905060008060008367ffffffffffffffff8111156110ff576110ff612bc7565b60405190808252806020026020018201604052801561113857816020015b6111256127aa565b81526020019060019003908161111d5790505b5090505b83821015610a79576000611151836001612ec2565b6000818152600d60205260409020600781015491925090610100900460ff1615156001036112455760408051610180810182528254815260018301546001600160a01b039081166020830152600284015492820192909252600383015482166060820152600483015482166080820152600583015490911660a0820152600682015460c0820152600782015460ff808216151560e0840152610100918290041615159082015260088201546101208201526009820154610140820152600a820154610160820152835184908790811061122c5761122c612eda565b6020908102919091010152611242600186612ec2565b94505b611250600185612ec2565b9350505061113c565b6112633383611f8c565b61127f5760405162461bcd60e51b815260040161074f90612ef0565b61128b8484848461249d565b50505050565b6002600754036112b35760405162461bcd60e51b815260040161074f90612f41565b600260078190556000828152600d60205260409020600681015491015434821461133b5760405162461bcd60e51b815260206004820152603360248201527f506c65617365207375626d6974207468652061736b696e6720707269636520696044820152726e206f7264657220746f20636f6e74696e756560681b606482015260840161074f565b6000818152600d60205260408082206003015490516001600160a01b03909116913480156108fc02929091818181858888f19350505050158015611383573d6000803e3d6000fd5b506040516323b872dd60e01b8152306004820181905233602483015260448201859052906323b872dd90606401600060405180830381600087803b1580156113ca57600080fd5b505af11580156113de573d6000803e3d6000fd5b505050506113ed3060016110a8565b6113fb600980546001019055565b81600a600082825461140d9190612ec2565b90915550506000908152600d60205260408120600481018054336001600160a01b0319918216811790925560038301805490911690911790556007808201805460ff1916600190811790915560069092019290925590555050565b6040516331a9108f60e11b8152600481018290526000903090636352211e90602401602060405180830381865afa1580156114a7573d6000803e3d6000fd5b505050506040513d601f19601f8201168201806040525081019061064f9190612f8f565b606060006114d860085490565b905060008060008367ffffffffffffffff8111156114f8576114f8612bc7565b60405190808252806020026020018201604052801561153157816020015b61151e6127aa565b8152602001906001900390816115165790505b5090505b83821015610a7957600d600061154c846001612ec2565b8152602081019190915260400160002060070154610100900460ff16151560010361167157600061157e836001612ec2565b6000818152600d602052604090206004810154919250906001600160a01b031661166e5760408051610180810182528254815260018301546001600160a01b039081166020830152600284015492820192909252600383015482166060820152600483015482166080820152600583015490911660a0820152600682015460c0820152600782015460ff808216151560e0840152610100918290041615159082015260088201546101208201526009820154610140820152600a820154610160820152835184908790811061165557611655612eda565b602090810291909101015261166b600186612ec2565b94505b50505b61167c600183612ec2565b9150611535565b606061168e82611f01565b6116f45760405162461bcd60e51b815260206004820152603160248201527f45524337323155524953746f726167653a2055524920717565727920666f72206044820152703737b732bc34b9ba32b73a103a37b5b2b760791b606482015260840161074f565b6000828152600660205260408120805461170d90612e72565b80601f016020809104026020016040519081016040528092919081815260200182805461173990612e72565b80156117865780601f1061175b57610100808354040283529160200191611786565b820191906000526020600020905b81548152906001019060200180831161176957829003601f168201915b5050505050905060006117a460408051602081019091526000815290565b905080516000036117b6575092915050565b8151156117e85780826040516020016117d0929190612fac565b60405160208183030381529060405292505050919050565b610a79846124d0565b6002600754036118135760405162461bcd60e51b815260040161074f90612f41565b60026007556000838152600e6020908152604091829020825180840184523381528351601f860184900484028101840190945284845290926003840192828101919087908790819084018382808284376000920182905250939094525050835460018082018655948252602091829020845160029092020180546001600160a01b0319166001600160a01b03909216919091178155838201518051949591946118c29450918501920190612833565b505060016007555050505050565b6002600754036118f25760405162461bcd60e51b815260040161074f90612f41565b600260078190556000828152600d602052604080822090920154808252919020600301546001600160a01b0316331461196d5760405162461bcd60e51b815260206004820152601b60248201527f596f752063616e6e6f74206d616e6167652074686973204e4654730000000000604482015260640161074f565b6040516323b872dd60e01b8152306004820181905233602483015260448201849052906323b872dd90606401600060405180830381600087803b1580156119b357600080fd5b505af11580156119c7573d6000803e3d6000fd5b505050600091825250600d60205260408120600481018054336001600160a01b0319918216811790925560038301805490911690911790556007808201805460ff19166001908117909155600690920192909255905550565b600260075403611a425760405162461bcd60e51b815260040161074f90612f41565b600260079081556000838152600d6020526040812090910154610100900460ff1615611b17576000611a7384610e1c565b9050336001600160a01b03821614611acd5760405162461bcd60e51b815260206004820152601b60248201527f596f752063616e6e6f74206d616e6167652074686973204e4654730000000000604482015260640161074f565b50506000828152600d60205260409020600381018054336001600160a01b031991821681179092556004830180549091169091179055600701805460ff1916600117905581611bab565b611b25600880546001019055565b50600854611b338183610f1a565b506000818152600d60205260408120828155600181018054306001600160a01b03199182161790915560028201849055600382018054339083168117909155600483018054831682179055600583018054909216179055600681019190915560078101805461ffff1916610101179055426008909101555b80306001600160a01b0316827f4eb35c3c60bb4872625f5629b63edf6fc44c316e5c83f472a8c89883bd30cf29336000336000806001604051611bf396959493929190612fdb565b60405180910390a45050600160075550565b6000818152600e60209081526040808320338452600190810190925282205460ff1615159003611c3757506000919050565b6000828152600e6020908152604080832033845260020190915290205460ff161515600103611c6857506001919050565b506002919050565b600260075403611c925760405162461bcd60e51b815260040161074f90612f41565b600260075581611ce45760405162461bcd60e51b815260206004820152601e60248201527f5072696365206d757374206265206174206c65617374206f6e65207765690000604482015260640161074f565b600c54341015611d4f5760405162461bcd60e51b815260206004820152603060248201527f7472616e73616374696f6e2076616c7565206d75737420626520657175616c2060448201526f746f206c697374696e6720707269636560801b606482015260840161074f565b6000838152600d6020526040812060070154610100900460ff1615611db757506000838152600d602052604090206003810180546001600160a01b03199081163317909155600482018054909116905560068101839055600701805460ff1916905582611e48565b611dc5600880546001019055565b50600854611dd38183610f1a565b506000818152600d602052604090208181556001810180546001600160a01b0319908116301790915560028201839055600382018054821633908117909155600483018054831690556005830180549092161790556006810184905560078101805461ffff1916610100179055426008909101555b6040516323b872dd60e01b8152336004820152306024820181905260448201839052906323b872dd90606401600060405180830381600087803b158015611e8e57600080fd5b505af1158015611ea2573d6000803e3d6000fd5b5050505080306001600160a01b0316827f4eb35c3c60bb4872625f5629b63edf6fc44c316e5c83f472a8c89883bd30cf29336000338960006001604051611eee96959493929190612fdb565b60405180910390a4505060016007555050565b6000908152600260205260409020546001600160a01b0316151590565b600081815260046020526040902080546001600160a01b0319166001600160a01b0384169081179091558190611f5382610e1c565b6001600160a01b03167f8c5be1e5ebec7d5bd14f71427d1e84f3dd0314c0f7b2291e5b200ac8c7c3b92560405160405180910390a45050565b6000611f9782611f01565b611ff85760405162461bcd60e51b815260206004820152602c60248201527f4552433732313a206f70657261746f7220717565727920666f72206e6f6e657860448201526b34b9ba32b73a103a37b5b2b760a11b606482015260840161074f565b600061200383610e1c565b9050806001600160a01b0316846001600160a01b0316148061204a57506001600160a01b0380821660009081526005602090815260408083209388168352929052205460ff165b80610a795750836001600160a01b0316612063846106e7565b6001600160a01b031614949350505050565b826001600160a01b031661208882610e1c565b6001600160a01b0316146120ec5760405162461bcd60e51b815260206004820152602560248201527f4552433732313a207472616e736665722066726f6d20696e636f72726563742060448201526437bbb732b960d91b606482015260840161074f565b6001600160a01b03821661214e5760405162461bcd60e51b8152602060048201526024808201527f4552433732313a207472616e7366657220746f20746865207a65726f206164646044820152637265737360e01b606482015260840161074f565b612159600082611f1e565b6001600160a01b0383166000908152600360205260408120805460019290612182908490612f78565b90915550506001600160a01b03821660009081526003602052604081208054600192906121b0908490612ec2565b909155505060008181526002602052604080822080546001600160a01b0319166001600160a01b0386811691821790925591518493918716917fddf252ad1be2c89b69c2b068fc378daa952ba7f163c4a11628f55a4df523b3ef91a4505050565b6001600160a01b0382166122675760405162461bcd60e51b815260206004820181905260248201527f4552433732313a206d696e7420746f20746865207a65726f2061646472657373604482015260640161074f565b61227081611f01565b156122bd5760405162461bcd60e51b815260206004820152601c60248201527f4552433732313a20746f6b656e20616c7265616479206d696e74656400000000604482015260640161074f565b6001600160a01b03821660009081526003602052604081208054600192906122e6908490612ec2565b909155505060008181526002602052604080822080546001600160a01b0319166001600160a01b03861690811790915590518392907fddf252ad1be2c89b69c2b068fc378daa952ba7f163c4a11628f55a4df523b3ef908290a45050565b61234d82611f01565b6123b05760405162461bcd60e51b815260206004820152602e60248201527f45524337323155524953746f726167653a2055524920736574206f66206e6f6e60448201526d32bc34b9ba32b73a103a37b5b2b760911b606482015260840161074f565b6000828152600660209081526040909120825161088492840190612833565b816001600160a01b0316836001600160a01b0316036124305760405162461bcd60e51b815260206004820152601960248201527f4552433732313a20617070726f766520746f2063616c6c657200000000000000604482015260640161074f565b6001600160a01b03838116600081815260056020908152604080832094871680845294825291829020805460ff191686151590811790915591519182527f17307eab39ab6107e8899845ad3d59bd9653f200f220920489ca2b5937696c31910160405180910390a3505050565b6124a8848484612075565b6124b4848484846125a8565b61128b5760405162461bcd60e51b815260040161074f90613014565b60606124db82611f01565b61253f5760405162461bcd60e51b815260206004820152602f60248201527f4552433732314d657461646174613a2055524920717565727920666f72206e6f60448201526e3732bc34b9ba32b73a103a37b5b2b760891b606482015260840161074f565b600061255660408051602081019091526000815290565b9050600081511161257657604051806020016040528060008152506125a1565b80612580846126a9565b604051602001612591929190612fac565b6040516020818303038152906040525b9392505050565b60006001600160a01b0384163b1561269e57604051630a85bd0160e11b81526001600160a01b0385169063150b7a02906125ec903390899088908890600401613066565b6020604051808303816000875af1925050508015612627575060408051601f3d908101601f19168201909252612624918101906130a3565b60015b612684573d808015612655576040519150601f19603f3d011682016040523d82523d6000602084013e61265a565b606091505b50805160000361267c5760405162461bcd60e51b815260040161074f90613014565b805181602001fd5b6001600160e01b031916630a85bd0160e11b149050610a79565b506001949350505050565b6060816000036126d05750506040805180820190915260018152600360fc1b602082015290565b8160005b81156126fa57806126e4816130c0565b91506126f39050600a836130ef565b91506126d4565b60008167ffffffffffffffff81111561271557612715612bc7565b6040519080825280601f01601f19166020018201604052801561273f576020820181803683370190505b5090505b8415610a7957612754600183612f78565b9150612761600a86613103565b61276c906030612ec2565b60f81b81838151811061278157612781612eda565b60200101906001600160f81b031916908160001a9053506127a3600a866130ef565b9450612743565b6040518061018001604052806000815260200160006001600160a01b031681526020016000815260200160006001600160a01b0316815260200160006001600160a01b0316815260200160006001600160a01b03168152602001600081526020016000151581526020016000151581526020016000815260200160008152602001600081525090565b82805461283f90612e72565b90600052602060002090601f01602090048101928261286157600085556128a7565b82601f1061287a57805160ff19168380011785556128a7565b828001600101855582156128a7579182015b828111156128a757825182559160200191906001019061288c565b506128b39291506128b7565b5090565b5b808211156128b357600081556001016128b8565b6001600160e01b0319811681146128e257600080fd5b50565b6000602082840312156128f757600080fd5b81356125a1816128cc565b60005b8381101561291d578181015183820152602001612905565b8381111561128b5750506000910152565b60008151808452612946816020860160208601612902565b601f01601f19169290920160200192915050565b6020815260006125a1602083018461292e565b60006020828403121561297f57600080fd5b5035919050565b6001600160a01b03811681146128e257600080fd5b600080604083850312156129ae57600080fd5b82356129b981612986565b946020939093013593505050565b8051825260208101516129e560208401826001600160a01b03169052565b50604081015160408301526060810151612a0a60608401826001600160a01b03169052565b506080810151612a2560808401826001600160a01b03169052565b5060a0810151612a4060a08401826001600160a01b03169052565b5060c081015160c083015260e0810151612a5e60e084018215159052565b50610100818101511515908301526101208082015190830152610140808201519083015261016090810151910152565b6020808252825182820181905260009190848201906040850190845b81811015612ad157612abd8385516129c7565b928401926101809290920191600101612aaa565b50909695505050505050565b600080600060608486031215612af257600080fd5b8335612afd81612986565b92506020840135612b0d81612986565b929592945050506040919091013590565b60006020808301818452808551808352604092508286019150828160051b87010184880160005b83811015612b8d57888303603f19018552815180516001600160a01b03168452870151878401879052612b7a8785018261292e565b9588019593505090860190600101612b45565b509098975050505050505050565b610180810161064f82846129c7565b600060208284031215612bbc57600080fd5b81356125a181612986565b634e487b7160e01b600052604160045260246000fd5b600067ffffffffffffffff80841115612bf857612bf8612bc7565b604051601f8501601f19908116603f01168101908282118183101715612c2057612c20612bc7565b81604052809350858152868686011115612c3957600080fd5b858560208301376000602087830101525050509392505050565b600082601f830112612c6457600080fd5b6125a183833560208501612bdd565b60008060408385031215612c8657600080fd5b82359150602083013567ffffffffffffffff811115612ca457600080fd5b612cb085828601612c53565b9150509250929050565b60008060408385031215612ccd57600080fd5b8235612cd881612986565b915060208301358015158114612ced57600080fd5b809150509250929050565b60008060008060808587031215612d0e57600080fd5b8435612d1981612986565b93506020850135612d2981612986565b925060408501359150606085013567ffffffffffffffff811115612d4c57600080fd5b8501601f81018713612d5d57600080fd5b612d6c87823560208401612bdd565b91505092959194509250565b600080600060408486031215612d8d57600080fd5b83359250602084013567ffffffffffffffff80821115612dac57600080fd5b818601915086601f830112612dc057600080fd5b813581811115612dcf57600080fd5b876020828501011115612de157600080fd5b6020830194508093505050509250925092565b60008060408385031215612e0757600080fd5b8235612e1281612986565b91506020830135612ced81612986565b600080600060608486031215612e3757600080fd5b8335925060208401359150604084013567ffffffffffffffff811115612e5c57600080fd5b612e6886828701612c53565b9150509250925092565b600181811c90821680612e8657607f821691505b602082108103612ea657634e487b7160e01b600052602260045260246000fd5b50919050565b634e487b7160e01b600052601160045260246000fd5b60008219821115612ed557612ed5612eac565b500190565b634e487b7160e01b600052603260045260246000fd5b60208082526031908201527f4552433732313a207472616e736665722063616c6c6572206973206e6f74206f6040820152701ddb995c881b9bdc88185c1c1c9bdd9959607a1b606082015260800190565b6020808252601f908201527f5265656e7472616e637947756172643a207265656e7472616e742063616c6c00604082015260600190565b600082821015612f8a57612f8a612eac565b500390565b600060208284031215612fa157600080fd5b81516125a181612986565b60008351612fbe818460208801612902565b835190830190612fd2818360208801612902565b01949350505050565b6001600160a01b03968716815294861660208601529290941660408401526060830152911515608082015290151560a082015260c00190565b60208082526032908201527f4552433732313a207472616e7366657220746f206e6f6e20455243373231526560408201527131b2b4bb32b91034b6b83632b6b2b73a32b960711b606082015260800190565b6001600160a01b03858116825284166020820152604081018390526080606082018190526000906130999083018461292e565b9695505050505050565b6000602082840312156130b557600080fd5b81516125a1816128cc565b6000600182016130d2576130d2612eac565b5060010190565b634e487b7160e01b600052601260045260246000fd5b6000826130fe576130fe6130d9565b500490565b600082613112576131126130d9565b50069056fea26469706673582212201e1332b8476c2e0dd8dc26da1ab2428f2a6c0785d368310dfbb0a26c5c87089f64736f6c634300080d0033",
  "immutableReferences": {},
  "source": "//SPDX-License-Identifier: MIT\r\npragma solidity ^0.8.4;\r\n\r\n// we will brin in the openzeppelin ERC721 NFT functionality\r\n\r\nimport '@openzeppelin/contracts/token/ERC721/ERC721.sol';\r\nimport '@openzeppelin/contracts/token/ERC721/extensions/ERC721URIStorage.sol';\r\nimport '@openzeppelin/contracts/utils/Counters.sol';\r\n// security against transactions for multiple request\r\nimport '@openzeppelin/contracts/security/ReentrancyGuard.sol';\r\n\r\ncontract MemeMarketplaceV2 is ERC721URIStorage, ReentrancyGuard {\r\n    using Counters for Counters.Counter;\r\n    //counter allow us to keep track of tokenIds\r\n    Counters.Counter private _tokenIds;\r\n\r\n\r\n    /* number of items minting, number of transactions, token that have not been sold\r\n    keep track of tokens total number - tokenId\r\n    arrays need to know the lentgth - help to keep track for arrays */\r\n\r\n    Counters.Counter private _tokensSold;\r\n    uint256 totalEthSold = 0;\r\n\r\n    // determine who is the owner of the contract\r\n    // charge a listing fee so the owner makes a commission\r\n\r\n    address payable owner;\r\n    // we are deploying to matic the API is the same so you can use ether the same as matic\r\n    // they both have 18 deimal\r\n    // mind the matic vs ether price!\r\n    uint256 listingPrice = 0.045 ether;\r\n\r\n    //OBJ: give the NFT market the ability to transact tokens or change ownership\r\n    // setApprovalForAll allow us to do that with contract address\r\n\r\n    // constructor set up our address\r\n    constructor() ERC721 ('9Chiq Memes', '8Chiqs') {\r\n        owner = payable(msg.sender);\r\n    }\r\n\r\n    // structs to hold the comments\r\n    struct Comment {\r\n        address addr;\r\n        string comment;\r\n    }\r\n\r\n    // comment, likes and dislikes\r\n    struct TokenLikesComment {\r\n        uint itemId;\r\n        mapping(address => bool) addToLike;\r\n        mapping(address => bool) addToDislike;\r\n        Comment[] comments;\r\n    }\r\n\r\n    // structs can act like objects\r\n\r\n    struct MarketToken {\r\n        uint itemId;\r\n        address nftContract;\r\n        uint256 tokenId;\r\n        address payable seller;\r\n        address payable owner;\r\n        address payable minter;\r\n        uint256 price;\r\n        bool sold;\r\n        bool isExist;\r\n        uint timeCreated;\r\n        uint likes;\r\n        uint dislikes;\r\n    }\r\n\r\n    // tokenId return which marketToken - fetch which one it is\r\n\r\n    mapping(uint256 => MarketToken) private idToMarketToken;\r\n\r\n    // tokenId to token likes dislike comment\r\n\r\n    mapping(uint256 => TokenLikesComment) private idToTokenLikes;\r\n\r\n    // listen to events for front end applications\r\n    event MarketTokenMinted(\r\n        uint indexed itemId,\r\n        address indexed nftContract,\r\n        uint indexed tokenId,\r\n        address seller,\r\n        address owner,\r\n        address minter,\r\n        uint256 price,\r\n        bool sold,\r\n        bool isExist\r\n    );\r\n\r\n    // listen to events of socials for front end applications\r\n    event TokenSocialEvent(\r\n        uint indexed itemId,\r\n        uint likes,\r\n        uint dislikes\r\n    );\r\n\r\n    // get the listing price\r\n    function getListingPrice() public view returns (uint256) {\r\n        return listingPrice;\r\n    }\r\n\r\n    // get the total sold\r\n    function getTotalSoldCount() public view returns (uint256) {\r\n        return _tokensSold.current();\r\n    }\r\n\r\n    // get the total sold in currency\r\n    function getTotalSold() public view returns (uint256) {\r\n        return totalEthSold;\r\n    }\r\n\r\n    function getCount() public view returns (uint) {\r\n        return _tokenIds.current();\r\n    }\r\n\r\n    // check the owner of NFTs\r\n    function getOwner(uint tokenId) public view returns (address) {\r\n        return IERC721(address(this)).ownerOf(tokenId);\r\n    }\r\n\r\n    // check if tokenId exists\r\n    function getSingleMarketToken(uint256 tokenId) public view returns (MarketToken memory) {\r\n        return idToMarketToken[tokenId];\r\n    }\r\n\r\n    // check if tokenId exists\r\n    function isTokenExists(uint256 tokenId) public view returns (bool) {\r\n        return idToMarketToken[tokenId].isExist;\r\n    }\r\n\r\n    // function to return all comments\r\n    function getComments(uint tokenId) public view returns (Comment[] memory) {\r\n        return idToTokenLikes[tokenId].comments;\r\n    }\r\n\r\n    // function to check if like or dislike or neither\r\n    function getLikeStatus(uint tokenId) public view returns (uint) {\r\n\r\n        if (idToTokenLikes[tokenId].addToLike[msg.sender] == true) {\r\n            return 0;\r\n        }\r\n\r\n        if (idToTokenLikes[tokenId].addToDislike[msg.sender] == true) {\r\n            return 1;\r\n        }\r\n\r\n        return 2;\r\n    }          \r\n\r\n    function mintToken(uint256 newItemId, string memory tokenURI) public returns(uint) {\r\n        // _tokenIds.increment();\r\n        // uint256 newItemId = _tokenIds.current();\r\n        _mint(msg.sender, newItemId);\r\n        // set the token URI: id and url\r\n        _setTokenURI(newItemId, tokenURI);\r\n        // give the marketplace the approval to transact between users\r\n        setApprovalForAll(address(this), true);\r\n        // mint the token and set it for sale - return the id to do so\r\n        return newItemId;\r\n    }\r\n\r\n    // create function to like a meme\r\n    function likeMeme(uint tokenId) public payable nonReentrant {\r\n        MarketToken storage m = idToMarketToken[tokenId];\r\n        TokenLikesComment storage mLike = idToTokenLikes[tokenId];\r\n        if (mLike.addToLike[msg.sender] == true) {\r\n            mLike.addToLike[msg.sender] = false;\r\n            m.likes-=1;\r\n        } else {\r\n            mLike.addToLike[msg.sender] = true;\r\n            m.likes+=1;\r\n            if (mLike.addToDislike[msg.sender] == true) {\r\n                m.dislikes-=1;\r\n                mLike.addToDislike[msg.sender] = false;\r\n            }\r\n        }\r\n        \r\n        // it is a good practice to emit event after modifying value transaction\r\n        emit TokenSocialEvent(tokenId, m.likes, m.dislikes);\r\n    }\r\n\r\n    // create function to dislike a meme\r\n    function dislikeMeme(uint tokenId) public payable nonReentrant {\r\n        MarketToken storage m = idToMarketToken[tokenId];\r\n        TokenLikesComment storage mLike = idToTokenLikes[tokenId];\r\n        if (mLike.addToDislike[msg.sender] == true) {\r\n            mLike.addToDislike[msg.sender] = false;\r\n            m.dislikes-=1;\r\n        } else {\r\n            mLike.addToDislike[msg.sender] = true;\r\n            m.dislikes+=1;\r\n            if (mLike.addToLike[msg.sender] == true) {\r\n                m.likes-=1;\r\n                mLike.addToLike[msg.sender] = false;\r\n            }\r\n        }\r\n\r\n        // it is a good practice to emit event after modifying value transaction\r\n        emit TokenSocialEvent(tokenId, m.likes, m.dislikes);\r\n    }\r\n\r\n    // create function to adda comment\r\n    function commentMeme(uint tokenId, string calldata comment) public payable nonReentrant {\r\n        TokenLikesComment storage mLike = idToTokenLikes[tokenId];\r\n        mLike.comments.push(Comment(msg.sender, comment));\r\n    }\r\n\r\n\r\n\r\n    // two functios to interact with contract\r\n    // 1. create a market item to put it up for sale\r\n    // 2. create a market sale for buying and selling between parties\r\n\r\n    function makeMarketItem(\r\n        uint tokenId,\r\n        uint price,\r\n        string memory tokenURI\r\n    ) \r\n    public payable nonReentrant {\r\n        // nonReentrant is a modifier to prevent reentry attack\r\n\r\n        require(price > 0, 'Price must be at least one wei');\r\n        require(msg.value >= listingPrice, 'transaction value must be equal to listing price');\r\n        uint itemId;\r\n        // // approve marketplace\r\n        // IERC721(nftContract).approve(address(this),tokenId); \r\n \r\n\r\n        if (isTokenExists(tokenId)) {\r\n            // this mean token exist in marketplace before\r\n            idToMarketToken[tokenId].seller = payable(msg.sender);\r\n            idToMarketToken[tokenId].owner = payable(address(0));\r\n            idToMarketToken[tokenId].price = price;\r\n            idToMarketToken[tokenId].sold = false;\r\n            itemId = tokenId;\r\n          \r\n        } else {\r\n            // this mean token is new in market place\r\n            _tokenIds.increment();\r\n            itemId = _tokenIds.current();\r\n            mintToken(itemId, tokenURI);\r\n\r\n            //putting it up for sale - bool - no owner\r\n            MarketToken storage m = idToMarketToken[itemId];\r\n            m.itemId = itemId;\r\n            m.nftContract = address(this);\r\n            m.tokenId = itemId;\r\n            m.seller = payable(msg.sender);\r\n            m.owner = payable(address(0));\r\n            m.minter = payable(msg.sender);\r\n            m.price = price;\r\n            m.sold = false;\r\n            m.isExist = true;\r\n            m.timeCreated = block.timestamp;\r\n\r\n        }\r\n\r\n        //NFT transaction\r\n        IERC721(address(this)).transferFrom(msg.sender, address(this), itemId);\r\n\r\n\r\n    \r\n\r\n        emit MarketTokenMinted(\r\n            itemId, \r\n            address(this), \r\n            itemId, \r\n            payable(msg.sender), \r\n            address(0), \r\n            payable(msg.sender), \r\n            price, \r\n            false,\r\n            true\r\n        );\r\n\r\n    }\r\n\r\n    // two functios to interact with contract\r\n    // 1. create a market item but not sale\r\n\r\n    function makeMarketItemNonSale(\r\n        uint tokenId,\r\n        string memory tokenURI\r\n    ) \r\n    public payable nonReentrant {\r\n        // nonReentrant is a modifier to prevent reentry attack\r\n\r\n        // require(price > 0, 'Price must be at least one wei');\r\n        // require(msg.value > listingPrice, 'transaction value must be equal to listing price');\r\n        uint itemId;\r\n\r\n        // require(msg.value >= listingPrice, 'transaction value must be equal to listing price');\r\n\r\n        if (isTokenExists(tokenId)) {\r\n            // this mean token exist in marketplace before\r\n            address ownerNow = ownerOf(tokenId);\r\n            require(payable(msg.sender) == ownerNow, 'You cannot manage this NFTs');\r\n\r\n            idToMarketToken[tokenId].seller = payable(msg.sender);\r\n            idToMarketToken[tokenId].owner = payable(msg.sender);\r\n            idToMarketToken[tokenId].sold = true;\r\n            itemId = tokenId;\r\n          \r\n        } else {\r\n            // this mean token is new in market place\r\n            _tokenIds.increment();\r\n            itemId = _tokenIds.current();\r\n            mintToken(itemId, tokenURI);\r\n\r\n            // referencing differently because of mapping inside struct\r\n            MarketToken storage m = idToMarketToken[itemId];\r\n            m.itemId = itemId;\r\n            m.nftContract = address(this);\r\n            m.tokenId = itemId;\r\n            m.seller = payable(msg.sender);\r\n            m.owner = payable(msg.sender);\r\n            m.minter = payable(msg.sender);\r\n            m.price = 0;\r\n            m.sold = true;\r\n            m.isExist = true;\r\n            m.timeCreated = block.timestamp;\r\n\r\n        }\r\n\r\n\r\n        emit MarketTokenMinted(\r\n            itemId, \r\n            address(this), \r\n            itemId, \r\n            payable(msg.sender), \r\n            address(0), \r\n            payable(msg.sender), \r\n            0, \r\n            false,\r\n            true\r\n        );\r\n\r\n    }\r\n\r\n    // function to conduct transactions and market sales\r\n\r\n    function createMarketSale(\r\n        uint tokenId\r\n    )\r\n    public payable nonReentrant {\r\n        uint price = idToMarketToken[tokenId].price;\r\n        uint currTokenId = idToMarketToken[tokenId].tokenId;\r\n\r\n        require(msg.value == price, 'Please submit the asking price in order to continue');\r\n\r\n        // transfer the amount to the seller\r\n        idToMarketToken[currTokenId].seller.transfer(msg.value);\r\n\r\n        // transfer the token from contract address to the buyer\r\n        IERC721(address(this)).transferFrom(address(this), msg.sender, tokenId);\r\n\r\n        setApprovalForAll(address(this), true);\r\n        _tokensSold.increment();\r\n        totalEthSold += price;\r\n        idToMarketToken[currTokenId].owner = payable(msg.sender);\r\n        idToMarketToken[currTokenId].seller = payable(msg.sender);\r\n        idToMarketToken[currTokenId].sold = true;\r\n        idToMarketToken[currTokenId].price = 0;\r\n\r\n\r\n        // payable(owner).transfer(listingPrice);\r\n\r\n    }\r\n\r\n    // function to cancel NFT listing\r\n\r\n    function cancelMarketSale(\r\n        uint tokenId\r\n    )\r\n    public payable nonReentrant {\r\n\r\n\r\n\r\n\r\n        // uint price = idToMarketToken[tokenId].price;\r\n        uint currTokenId = idToMarketToken[tokenId].tokenId;\r\n\r\n        // address ownerNow = IERC721(nftContract).ownerOf(tokenId);\r\n        require(payable(msg.sender) == idToMarketToken[currTokenId].seller, 'You cannot manage this NFTs');\r\n\r\n\r\n        // transfer the token from contract address to the owner back\r\n        IERC721(address(this)).transferFrom(address(this), msg.sender, tokenId);\r\n        idToMarketToken[currTokenId].owner = payable(msg.sender);\r\n        idToMarketToken[currTokenId].seller = payable(msg.sender);\r\n        idToMarketToken[currTokenId].sold = true;\r\n        idToMarketToken[currTokenId].price = 0;\r\n        // _tokensSold.increment();\r\n\r\n        // transfer back the listing price\r\n        // idToMarketToken[currTokenId].seller.transfer(listingPrice);\r\n\r\n    }\r\n\r\n    //function to fetchMarketItems - minting, buying and selling\r\n    // return the number of unsold items\r\n\r\n    function fetchMarketTokens() public view returns(MarketToken[] memory) {\r\n        uint itemCount = _tokenIds.current();\r\n        // uint unsoldItemCount = itemCount - _tokensSold.current();\r\n        uint currentIndex = 0;\r\n        uint checkingIndex = 0;\r\n\r\n        // looping over the number of items created (if number has not been sold populate the array)\r\n        MarketToken[] memory items = new MarketToken[](itemCount);\r\n        while (checkingIndex < itemCount) {\r\n            \r\n            if (idToMarketToken[checkingIndex + 1].isExist == true) {\r\n                uint currentId = checkingIndex + 1;\r\n                MarketToken storage currentItem = idToMarketToken[currentId];\r\n                if (currentItem.owner == payable(address(0))) {\r\n                    items[currentIndex] = currentItem;\r\n                    currentIndex += 1;\r\n                }\r\n\r\n            }\r\n            checkingIndex +=1;\r\n        }\r\n        return items;\r\n    }\r\n\r\n    // return nfts that the user has purchased\r\n\r\n    function fetchMyNFTs() public view returns (MarketToken[] memory) {\r\n        uint totalItemCount = _tokenIds.current();\r\n        // a second counter for each individual user\r\n        uint currentIndex = 0;\r\n        uint checkingIndex = 0;\r\n\r\n        // for (uint i = 0; i < totalItemCount; i++) {\r\n        //     if(idToMarketToken[i + 1].owner == msg.sender || idToMarketToken[i + 1].owner == payable(msg.sender)) {\r\n        //         itemCount += 1;\r\n        //     }\r\n        // }\r\n\r\n\r\n        MarketToken[] memory items = new MarketToken[](totalItemCount);\r\n        while (checkingIndex < totalItemCount) {\r\n            if (idToMarketToken[checkingIndex + 1].owner == msg.sender || idToMarketToken[checkingIndex + 1].seller == msg.sender) {\r\n                uint currentId = checkingIndex + 1;\r\n                // current array\r\n                MarketToken storage currentItem = idToMarketToken[currentId];\r\n                if (currentItem.isExist == true) {\r\n                    items[currentIndex] = currentItem;\r\n                    currentIndex += 1;\r\n                }\r\n\r\n            }\r\n            checkingIndex +=1;\r\n        }\r\n        return items;\r\n    }\r\n\r\n    //function for returning an array of minted nfts\r\n    // function fetchItemsCreated() public view returns(MarketToken[] memory) {\r\n    //     // insted of owner, it will be the seller\r\n    //     uint totalItemCount = _tokenIds.current();\r\n    //     uint itemCount = 0;\r\n    //     uint currentIndex = 0;\r\n    //     uint checkingIndex = 0;\r\n\r\n    //     for (uint i = 0; i < totalItemCount; i++) {\r\n    //         if (idToMarketToken[i + 1].minter == msg.sender) {\r\n    //             itemCount += 1;\r\n    //         }\r\n    //     }\r\n\r\n    //     MarketToken[] memory items = new MarketToken[](itemCount);\r\n\r\n    //     while (currentIndex < totalItemCount) {\r\n    //         if (idToMarketToken[checkingIndex + 1].seller == msg.sender) {\r\n    //             uint currentId = checkingIndex + 1;\r\n    //             MarketToken storage currentItem = idToMarketToken[currentId];\r\n    //             if (currentItem.isExist == true) {\r\n    //                 items[currentIndex] = currentItem;\r\n    //                 currentIndex += 1;\r\n    //             }\r\n                \r\n    //         }\r\n    //         checkingIndex += 1;\r\n    //     }\r\n    //     return items;\r\n    // }\r\n\r\n    //function to fetchAllItems - \r\n    // return the number of all items\r\n\r\n    function fetchMarketAllTokens() public view returns(MarketToken[] memory) {\r\n        uint itemCount = _tokenIds.current();\r\n        // uint unsoldItemCount = itemCount - _tokensSold.current();\r\n        uint currentIndex = 0;\r\n        uint checkingIndex = 0;\r\n\r\n        // looping over the number of items created (if number has not been sold populate the array)\r\n        MarketToken[] memory items = new MarketToken[](itemCount);\r\n        while (checkingIndex < itemCount) {\r\n\r\n            uint currentId = checkingIndex + 1;\r\n            MarketToken storage currentItem = idToMarketToken[currentId];\r\n            if (currentItem.isExist == true) {\r\n                items[currentIndex] = currentItem;\r\n                currentIndex += 1;\r\n            }\r\n            checkingIndex +=1;\r\n        }\r\n        return items;\r\n    }    \r\n\r\n    \r\n}",
  "sourcePath": "D:\\react-next-js\\meme-chain\\contracts\\MemeMarketplaceV2.sol",
  "compiler": {
    "name": "solc",
    "version": "0.8.13+commit.abaa5c0e.Emscripten.clang"
  },
  "schemaVersion": "3.4.7",
  "updatedAt": "2022-07-10T01:57:01.828Z",
  "networkType": "ethereum",
  "devdoc": {
    "kind": "dev",
    "methods": {
      "approve(address,uint256)": {
        "details": "See {IERC721-approve}."
      },
      "balanceOf(address)": {
        "details": "See {IERC721-balanceOf}."
      },
      "getApproved(uint256)": {
        "details": "See {IERC721-getApproved}."
      },
      "isApprovedForAll(address,address)": {
        "details": "See {IERC721-isApprovedForAll}."
      },
      "name()": {
        "details": "See {IERC721Metadata-name}."
      },
      "ownerOf(uint256)": {
        "details": "See {IERC721-ownerOf}."
      },
      "safeTransferFrom(address,address,uint256)": {
        "details": "See {IERC721-safeTransferFrom}."
      },
      "safeTransferFrom(address,address,uint256,bytes)": {
        "details": "See {IERC721-safeTransferFrom}."
      },
      "setApprovalForAll(address,bool)": {
        "details": "See {IERC721-setApprovalForAll}."
      },
      "supportsInterface(bytes4)": {
        "details": "See {IERC165-supportsInterface}."
      },
      "symbol()": {
        "details": "See {IERC721Metadata-symbol}."
      },
      "tokenURI(uint256)": {
        "details": "See {IERC721Metadata-tokenURI}."
      },
      "transferFrom(address,address,uint256)": {
        "details": "See {IERC721-transferFrom}."
      }
    },
    "version": 1
  },
  "userdoc": {
    "kind": "user",
    "methods": {},
    "version": 1
  }
}