{
  "contractName": "NFT",
  "abi": [
    {
      "inputs": [
        {
          "internalType": "address",
          "name": "marketplaceAddress",
          "type": "address"
        }
      ],
      "stateMutability": "nonpayable",
      "type": "constructor"
    },
    {
      "anonymous": false,
      "inputs": [
        {
          "indexed": true,
          "internalType": "address",
          "name": "owner",
          "type": "address"
        },
        {
          "indexed": true,
          "internalType": "address",
          "name": "approved",
          "type": "address"
        },
        {
          "indexed": true,
          "internalType": "uint256",
          "name": "tokenId",
          "type": "uint256"
        }
      ],
      "name": "Approval",
      "type": "event"
    },
    {
      "anonymous": false,
      "inputs": [
        {
          "indexed": true,
          "internalType": "address",
          "name": "owner",
          "type": "address"
        },
        {
          "indexed": true,
          "internalType": "address",
          "name": "operator",
          "type": "address"
        },
        {
          "indexed": false,
          "internalType": "bool",
          "name": "approved",
          "type": "bool"
        }
      ],
      "name": "ApprovalForAll",
      "type": "event"
    },
    {
      "anonymous": false,
      "inputs": [
        {
          "indexed": true,
          "internalType": "address",
          "name": "from",
          "type": "address"
        },
        {
          "indexed": true,
          "internalType": "address",
          "name": "to",
          "type": "address"
        },
        {
          "indexed": true,
          "internalType": "uint256",
          "name": "tokenId",
          "type": "uint256"
        }
      ],
      "name": "Transfer",
      "type": "event"
    },
    {
      "inputs": [
        {
          "internalType": "address",
          "name": "to",
          "type": "address"
        },
        {
          "internalType": "uint256",
          "name": "tokenId",
          "type": "uint256"
        }
      ],
      "name": "approve",
      "outputs": [],
      "stateMutability": "nonpayable",
      "type": "function"
    },
    {
      "inputs": [
        {
          "internalType": "address",
          "name": "owner",
          "type": "address"
        }
      ],
      "name": "balanceOf",
      "outputs": [
        {
          "internalType": "uint256",
          "name": "",
          "type": "uint256"
        }
      ],
      "stateMutability": "view",
      "type": "function"
    },
    {
      "inputs": [
        {
          "internalType": "uint256",
          "name": "tokenId",
          "type": "uint256"
        }
      ],
      "name": "getApproved",
      "outputs": [
        {
          "internalType": "address",
          "name": "",
          "type": "address"
        }
      ],
      "stateMutability": "view",
      "type": "function"
    },
    {
      "inputs": [
        {
          "internalType": "address",
          "name": "owner",
          "type": "address"
        },
        {
          "internalType": "address",
          "name": "operator",
          "type": "address"
        }
      ],
      "name": "isApprovedForAll",
      "outputs": [
        {
          "internalType": "bool",
          "name": "",
          "type": "bool"
        }
      ],
      "stateMutability": "view",
      "type": "function"
    },
    {
      "inputs": [],
      "name": "name",
      "outputs": [
        {
          "internalType": "string",
          "name": "",
          "type": "string"
        }
      ],
      "stateMutability": "view",
      "type": "function"
    },
    {
      "inputs": [
        {
          "internalType": "uint256",
          "name": "tokenId",
          "type": "uint256"
        }
      ],
      "name": "ownerOf",
      "outputs": [
        {
          "internalType": "address",
          "name": "",
          "type": "address"
        }
      ],
      "stateMutability": "view",
      "type": "function"
    },
    {
      "inputs": [
        {
          "internalType": "address",
          "name": "from",
          "type": "address"
        },
        {
          "internalType": "address",
          "name": "to",
          "type": "address"
        },
        {
          "internalType": "uint256",
          "name": "tokenId",
          "type": "uint256"
        }
      ],
      "name": "safeTransferFrom",
      "outputs": [],
      "stateMutability": "nonpayable",
      "type": "function"
    },
    {
      "inputs": [
        {
          "internalType": "address",
          "name": "from",
          "type": "address"
        },
        {
          "internalType": "address",
          "name": "to",
          "type": "address"
        },
        {
          "internalType": "uint256",
          "name": "tokenId",
          "type": "uint256"
        },
        {
          "internalType": "bytes",
          "name": "_data",
          "type": "bytes"
        }
      ],
      "name": "safeTransferFrom",
      "outputs": [],
      "stateMutability": "nonpayable",
      "type": "function"
    },
    {
      "inputs": [
        {
          "internalType": "address",
          "name": "operator",
          "type": "address"
        },
        {
          "internalType": "bool",
          "name": "approved",
          "type": "bool"
        }
      ],
      "name": "setApprovalForAll",
      "outputs": [],
      "stateMutability": "nonpayable",
      "type": "function"
    },
    {
      "inputs": [
        {
          "internalType": "bytes4",
          "name": "interfaceId",
          "type": "bytes4"
        }
      ],
      "name": "supportsInterface",
      "outputs": [
        {
          "internalType": "bool",
          "name": "",
          "type": "bool"
        }
      ],
      "stateMutability": "view",
      "type": "function"
    },
    {
      "inputs": [],
      "name": "symbol",
      "outputs": [
        {
          "internalType": "string",
          "name": "",
          "type": "string"
        }
      ],
      "stateMutability": "view",
      "type": "function"
    },
    {
      "inputs": [
        {
          "internalType": "uint256",
          "name": "tokenId",
          "type": "uint256"
        }
      ],
      "name": "tokenURI",
      "outputs": [
        {
          "internalType": "string",
          "name": "",
          "type": "string"
        }
      ],
      "stateMutability": "view",
      "type": "function"
    },
    {
      "inputs": [
        {
          "internalType": "address",
          "name": "from",
          "type": "address"
        },
        {
          "internalType": "address",
          "name": "to",
          "type": "address"
        },
        {
          "internalType": "uint256",
          "name": "tokenId",
          "type": "uint256"
        }
      ],
      "name": "transferFrom",
      "outputs": [],
      "stateMutability": "nonpayable",
      "type": "function"
    },
    {
      "inputs": [
        {
          "internalType": "string",
          "name": "tokenURI",
          "type": "string"
        }
      ],
      "name": "mintToken",
      "outputs": [
        {
          "internalType": "uint256",
          "name": "",
          "type": "uint256"
        }
      ],
      "stateMutability": "nonpayable",
      "type": "function"
    }
  ],
  "bytecode": "0x60806040523480156200001157600080fd5b50604051620018ca380380620018ca83398101604081905262000034916200016b565b604080518082018252600b81526a3943686971204d656d657360a81b60208083019182528351808501909452600684526538436869717360d01b9084015281519192916200008591600091620000c5565b5080516200009b906001906020840190620000c5565b5050600880546001600160a01b0319166001600160a01b03939093169290921790915550620001d9565b828054620000d3906200019d565b90600052602060002090601f016020900481019282620000f7576000855562000142565b82601f106200011257805160ff191683800117855562000142565b8280016001018555821562000142579182015b828111156200014257825182559160200191906001019062000125565b506200015092915062000154565b5090565b5b8082111562000150576000815560010162000155565b6000602082840312156200017e57600080fd5b81516001600160a01b03811681146200019657600080fd5b9392505050565b600181811c90821680620001b257607f821691505b602082108103620001d357634e487b7160e01b600052602260045260246000fd5b50919050565b6116e180620001e96000396000f3fe608060405234801561001057600080fd5b50600436106100ea5760003560e01c80636352211e1161008c578063a22cb46511610066578063a22cb465146101e1578063b88d4fde146101f4578063c87b56dd14610207578063e985e9c51461021a57600080fd5b80636352211e146101b357806370a08231146101c657806395d89b41146101d957600080fd5b8063095ea7b3116100c8578063095ea7b31461015757806323b872dd1461016c57806333eba49a1461017f57806342842e0e146101a057600080fd5b806301ffc9a7146100ef57806306fdde0314610117578063081812fc1461012c575b600080fd5b6101026100fd366004611195565b610256565b60405190151581526020015b60405180910390f35b61011f6102a8565b60405161010e919061120a565b61013f61013a36600461121d565b61033a565b6040516001600160a01b03909116815260200161010e565b61016a610165366004611252565b6103c7565b005b61016a61017a36600461127c565b6104dc565b61019261018d366004611344565b61050d565b60405190815260200161010e565b61016a6101ae36600461127c565b610555565b61013f6101c136600461121d565b610570565b6101926101d436600461138d565b6105e7565b61011f61066e565b61016a6101ef3660046113a8565b61067d565b61016a6102023660046113e4565b61068c565b61011f61021536600461121d565b6106c4565b610102610228366004611460565b6001600160a01b03918216600090815260056020908152604080832093909416825291909152205460ff1690565b60006001600160e01b031982166380ac58cd60e01b148061028757506001600160e01b03198216635b5e139f60e01b145b806102a257506301ffc9a760e01b6001600160e01b03198316145b92915050565b6060600080546102b790611493565b80601f01602080910402602001604051908101604052809291908181526020018280546102e390611493565b80156103305780601f1061030557610100808354040283529160200191610330565b820191906000526020600020905b81548152906001019060200180831161031357829003601f168201915b5050505050905090565b60006103458261083a565b6103ab5760405162461bcd60e51b815260206004820152602c60248201527f4552433732313a20617070726f76656420717565727920666f72206e6f6e657860448201526b34b9ba32b73a103a37b5b2b760a11b60648201526084015b60405180910390fd5b506000908152600460205260409020546001600160a01b031690565b60006103d282610570565b9050806001600160a01b0316836001600160a01b03160361043f5760405162461bcd60e51b815260206004820152602160248201527f4552433732313a20617070726f76616c20746f2063757272656e74206f776e656044820152603960f91b60648201526084016103a2565b336001600160a01b038216148061045b575061045b8133610228565b6104cd5760405162461bcd60e51b815260206004820152603860248201527f4552433732313a20617070726f76652063616c6c6572206973206e6f74206f7760448201527f6e6572206e6f7220617070726f76656420666f7220616c6c000000000000000060648201526084016103a2565b6104d78383610857565b505050565b6104e633826108c5565b6105025760405162461bcd60e51b81526004016103a2906114cd565b6104d78383836109ae565b600061051d600780546001019055565b600061052860075490565b90506105343382610b4a565b61053e8184610c7d565b6008546102a2906001600160a01b0316600161067d565b6104d78383836040518060200160405280600081525061068c565b6000818152600260205260408120546001600160a01b0316806102a25760405162461bcd60e51b815260206004820152602960248201527f4552433732313a206f776e657220717565727920666f72206e6f6e657869737460448201526832b73a103a37b5b2b760b91b60648201526084016103a2565b60006001600160a01b0382166106525760405162461bcd60e51b815260206004820152602a60248201527f4552433732313a2062616c616e636520717565727920666f7220746865207a65604482015269726f206164647265737360b01b60648201526084016103a2565b506001600160a01b031660009081526003602052604090205490565b6060600180546102b790611493565b610688338383610d08565b5050565b61069633836108c5565b6106b25760405162461bcd60e51b81526004016103a2906114cd565b6106be84848484610dd6565b50505050565b60606106cf8261083a565b6107355760405162461bcd60e51b815260206004820152603160248201527f45524337323155524953746f726167653a2055524920717565727920666f72206044820152703737b732bc34b9ba32b73a103a37b5b2b760791b60648201526084016103a2565b6000828152600660205260408120805461074e90611493565b80601f016020809104026020016040519081016040528092919081815260200182805461077a90611493565b80156107c75780601f1061079c576101008083540402835291602001916107c7565b820191906000526020600020905b8154815290600101906020018083116107aa57829003601f168201915b5050505050905060006107e560408051602081019091526000815290565b905080516000036107f7575092915050565b81511561082957808260405160200161081192919061151e565b60405160208183030381529060405292505050919050565b61083284610e09565b949350505050565b6000908152600260205260409020546001600160a01b0316151590565b600081815260046020526040902080546001600160a01b0319166001600160a01b038416908117909155819061088c82610570565b6001600160a01b03167f8c5be1e5ebec7d5bd14f71427d1e84f3dd0314c0f7b2291e5b200ac8c7c3b92560405160405180910390a45050565b60006108d08261083a565b6109315760405162461bcd60e51b815260206004820152602c60248201527f4552433732313a206f70657261746f7220717565727920666f72206e6f6e657860448201526b34b9ba32b73a103a37b5b2b760a11b60648201526084016103a2565b600061093c83610570565b9050806001600160a01b0316846001600160a01b0316148061098357506001600160a01b0380821660009081526005602090815260408083209388168352929052205460ff165b806108325750836001600160a01b031661099c8461033a565b6001600160a01b031614949350505050565b826001600160a01b03166109c182610570565b6001600160a01b031614610a255760405162461bcd60e51b815260206004820152602560248201527f4552433732313a207472616e736665722066726f6d20696e636f72726563742060448201526437bbb732b960d91b60648201526084016103a2565b6001600160a01b038216610a875760405162461bcd60e51b8152602060048201526024808201527f4552433732313a207472616e7366657220746f20746865207a65726f206164646044820152637265737360e01b60648201526084016103a2565b610a92600082610857565b6001600160a01b0383166000908152600360205260408120805460019290610abb908490611563565b90915550506001600160a01b0382166000908152600360205260408120805460019290610ae990849061157a565b909155505060008181526002602052604080822080546001600160a01b0319166001600160a01b0386811691821790925591518493918716917fddf252ad1be2c89b69c2b068fc378daa952ba7f163c4a11628f55a4df523b3ef91a4505050565b6001600160a01b038216610ba05760405162461bcd60e51b815260206004820181905260248201527f4552433732313a206d696e7420746f20746865207a65726f206164647265737360448201526064016103a2565b610ba98161083a565b15610bf65760405162461bcd60e51b815260206004820152601c60248201527f4552433732313a20746f6b656e20616c7265616479206d696e7465640000000060448201526064016103a2565b6001600160a01b0382166000908152600360205260408120805460019290610c1f90849061157a565b909155505060008181526002602052604080822080546001600160a01b0319166001600160a01b03861690811790915590518392907fddf252ad1be2c89b69c2b068fc378daa952ba7f163c4a11628f55a4df523b3ef908290a45050565b610c868261083a565b610ce95760405162461bcd60e51b815260206004820152602e60248201527f45524337323155524953746f726167653a2055524920736574206f66206e6f6e60448201526d32bc34b9ba32b73a103a37b5b2b760911b60648201526084016103a2565b600082815260066020908152604090912082516104d7928401906110e3565b816001600160a01b0316836001600160a01b031603610d695760405162461bcd60e51b815260206004820152601960248201527f4552433732313a20617070726f766520746f2063616c6c65720000000000000060448201526064016103a2565b6001600160a01b03838116600081815260056020908152604080832094871680845294825291829020805460ff191686151590811790915591519182527f17307eab39ab6107e8899845ad3d59bd9653f200f220920489ca2b5937696c31910160405180910390a3505050565b610de18484846109ae565b610ded84848484610ee1565b6106be5760405162461bcd60e51b81526004016103a290611592565b6060610e148261083a565b610e785760405162461bcd60e51b815260206004820152602f60248201527f4552433732314d657461646174613a2055524920717565727920666f72206e6f60448201526e3732bc34b9ba32b73a103a37b5b2b760891b60648201526084016103a2565b6000610e8f60408051602081019091526000815290565b90506000815111610eaf5760405180602001604052806000815250610eda565b80610eb984610fe2565b604051602001610eca92919061151e565b6040516020818303038152906040525b9392505050565b60006001600160a01b0384163b15610fd757604051630a85bd0160e11b81526001600160a01b0385169063150b7a0290610f259033908990889088906004016115e4565b6020604051808303816000875af1925050508015610f60575060408051601f3d908101601f19168201909252610f5d91810190611621565b60015b610fbd573d808015610f8e576040519150601f19603f3d011682016040523d82523d6000602084013e610f93565b606091505b508051600003610fb55760405162461bcd60e51b81526004016103a290611592565b805181602001fd5b6001600160e01b031916630a85bd0160e11b149050610832565b506001949350505050565b6060816000036110095750506040805180820190915260018152600360fc1b602082015290565b8160005b8115611033578061101d8161163e565b915061102c9050600a8361166d565b915061100d565b60008167ffffffffffffffff81111561104e5761104e6112b8565b6040519080825280601f01601f191660200182016040528015611078576020820181803683370190505b5090505b84156108325761108d600183611563565b915061109a600a86611681565b6110a590603061157a565b60f81b8183815181106110ba576110ba611695565b60200101906001600160f81b031916908160001a9053506110dc600a8661166d565b945061107c565b8280546110ef90611493565b90600052602060002090601f0160209004810192826111115760008555611157565b82601f1061112a57805160ff1916838001178555611157565b82800160010185558215611157579182015b8281111561115757825182559160200191906001019061113c565b50611163929150611167565b5090565b5b808211156111635760008155600101611168565b6001600160e01b03198116811461119257600080fd5b50565b6000602082840312156111a757600080fd5b8135610eda8161117c565b60005b838110156111cd5781810151838201526020016111b5565b838111156106be5750506000910152565b600081518084526111f68160208601602086016111b2565b601f01601f19169290920160200192915050565b602081526000610eda60208301846111de565b60006020828403121561122f57600080fd5b5035919050565b80356001600160a01b038116811461124d57600080fd5b919050565b6000806040838503121561126557600080fd5b61126e83611236565b946020939093013593505050565b60008060006060848603121561129157600080fd5b61129a84611236565b92506112a860208501611236565b9150604084013590509250925092565b634e487b7160e01b600052604160045260246000fd5b600067ffffffffffffffff808411156112e9576112e96112b8565b604051601f8501601f19908116603f01168101908282118183101715611311576113116112b8565b8160405280935085815286868601111561132a57600080fd5b858560208301376000602087830101525050509392505050565b60006020828403121561135657600080fd5b813567ffffffffffffffff81111561136d57600080fd5b8201601f8101841361137e57600080fd5b610832848235602084016112ce565b60006020828403121561139f57600080fd5b610eda82611236565b600080604083850312156113bb57600080fd5b6113c483611236565b9150602083013580151581146113d957600080fd5b809150509250929050565b600080600080608085870312156113fa57600080fd5b61140385611236565b935061141160208601611236565b925060408501359150606085013567ffffffffffffffff81111561143457600080fd5b8501601f8101871361144557600080fd5b611454878235602084016112ce565b91505092959194509250565b6000806040838503121561147357600080fd5b61147c83611236565b915061148a60208401611236565b90509250929050565b600181811c908216806114a757607f821691505b6020821081036114c757634e487b7160e01b600052602260045260246000fd5b50919050565b60208082526031908201527f4552433732313a207472616e736665722063616c6c6572206973206e6f74206f6040820152701ddb995c881b9bdc88185c1c1c9bdd9959607a1b606082015260800190565b600083516115308184602088016111b2565b8351908301906115448183602088016111b2565b01949350505050565b634e487b7160e01b600052601160045260246000fd5b6000828210156115755761157561154d565b500390565b6000821982111561158d5761158d61154d565b500190565b60208082526032908201527f4552433732313a207472616e7366657220746f206e6f6e20455243373231526560408201527131b2b4bb32b91034b6b83632b6b2b73a32b960711b606082015260800190565b6001600160a01b0385811682528416602082015260408101839052608060608201819052600090611617908301846111de565b9695505050505050565b60006020828403121561163357600080fd5b8151610eda8161117c565b6000600182016116505761165061154d565b5060010190565b634e487b7160e01b600052601260045260246000fd5b60008261167c5761167c611657565b500490565b60008261169057611690611657565b500690565b634e487b7160e01b600052603260045260246000fdfea2646970667358221220b9aac57f7480bec40f165a7bf37fa99a2d6783d0bcd3b72a228d214122fec1cc64736f6c634300080d0033",
  "immutableReferences": {},
  "source": "//SPDX-License-Identifier: MIT\r\npragma solidity ^0.8.4;\r\n\r\n// we will brin in the openzeppelin ERC721 NFT functionality\r\n\r\nimport '@openzeppelin/contracts/token/ERC721/ERC721.sol';\r\nimport '@openzeppelin/contracts/token/ERC721/extensions/ERC721URIStorage.sol';\r\nimport '@openzeppelin/contracts/utils/Counters.sol';\r\n\r\ncontract NFT is ERC721URIStorage {\r\n    using Counters for Counters.Counter;\r\n    //counter allow us to keep track of tokenIds\r\n    Counters.Counter private _tokenIds;\r\n\r\n    //address of marketplace for NFTs to interact\r\n    address contractAddress;\r\n\r\n    //OBJ: give the NFT market the ability to transact tokens or change ownership\r\n    // setApprovalForAll allow us to do that with contract address\r\n\r\n    // constructor set up our address\r\n    constructor(address marketplaceAddress) ERC721 ('9Chiq Memes', '8Chiqs') {\r\n        contractAddress = marketplaceAddress;\r\n    }\r\n\r\n    function mintToken(string memory tokenURI) public returns(uint) {\r\n        _tokenIds.increment();\r\n        uint256 newItemId = _tokenIds.current();\r\n        _mint(msg.sender, newItemId);\r\n        // set the token URI: id and url\r\n        _setTokenURI(newItemId, tokenURI);\r\n        // give the marketplace the approval to transact between users\r\n        setApprovalForAll(contractAddress, true);\r\n        // mint the token and set it for sale - return the id to do so\r\n        return newItemId;\r\n    }\r\n\r\n    \r\n}",
  "sourcePath": "D:\\react-next-js\\meme-chain\\contracts\\NFT.sol",
  "compiler": {
    "name": "solc",
    "version": "0.8.13+commit.abaa5c0e.Emscripten.clang"
  },
  "schemaVersion": "3.4.7",
  "updatedAt": "2022-07-10T01:57:01.763Z",
  "networkType": "ethereum",
  "devdoc": {
    "kind": "dev",
    "methods": {
      "approve(address,uint256)": {
        "details": "See {IERC721-approve}."
      },
      "balanceOf(address)": {
        "details": "See {IERC721-balanceOf}."
      },
      "getApproved(uint256)": {
        "details": "See {IERC721-getApproved}."
      },
      "isApprovedForAll(address,address)": {
        "details": "See {IERC721-isApprovedForAll}."
      },
      "name()": {
        "details": "See {IERC721Metadata-name}."
      },
      "ownerOf(uint256)": {
        "details": "See {IERC721-ownerOf}."
      },
      "safeTransferFrom(address,address,uint256)": {
        "details": "See {IERC721-safeTransferFrom}."
      },
      "safeTransferFrom(address,address,uint256,bytes)": {
        "details": "See {IERC721-safeTransferFrom}."
      },
      "setApprovalForAll(address,bool)": {
        "details": "See {IERC721-setApprovalForAll}."
      },
      "supportsInterface(bytes4)": {
        "details": "See {IERC165-supportsInterface}."
      },
      "symbol()": {
        "details": "See {IERC721Metadata-symbol}."
      },
      "tokenURI(uint256)": {
        "details": "See {IERC721Metadata-tokenURI}."
      },
      "transferFrom(address,address,uint256)": {
        "details": "See {IERC721-transferFrom}."
      }
    },
    "version": 1
  },
  "userdoc": {
    "kind": "user",
    "methods": {},
    "version": 1
  }
}